:100000000C944F030C9471030C9471030C947103C2
:100010000C9471030C9471030C9471030C94710390
:100020000C9471030C9471030C9471030C94710380
:100030000C9471030C9471030C9471030C94710370
:100040000C9471030C9471030C9471030C94710360
:100050000C9471030C9471030C9471030C94710350
:100060000C9471030C947F320C947E330C947103C6
:100070000C9471030C9471030C9471030C94710330
:100080000C948E2D0C9471030C9471030C947103D9
:100090000C9456320C9455330C9471030C947C0CD4
:1000A0000C9471030C9471030C9471030C94710300
:1000B0000C9471030C9471030C9471030C947103F0
:1000C0000C9471030C9471030C9471030C942D32F5
:1000D0000C942C330C9471030C9404320C94033361
:1000E0000C947103DA0C930C930C930C930C930CFB
:1000F000930C930CDA0C930C930C930C930C930CC1
:10010000930C930CDC0C930C930C930C930C930CAE
:10011000930C930C140D930C930C930C930C930C65
:10012000930C930CDC0C930C930C930C930C930C8E
:10013000930C930C140D930C930C930C930C930C45
:10014000930C930C1C0D930C930C930C930C930C2D
:10015000930C930C4C0D930C930C930C930C930CED
:10016000930C930C930C930C930C930C930C930C97
:10017000930C930CC20C930C930C930C930C930C58
:10018000930C930C030D930C930C930C930C930C06
:10019000930C930C490D930C930C930C930C930CB0
:1001A000930C930C490D930C930C930C930C930CA0
:1001B000930C930C340D930C930C930C930C930CA5
:1001C000930C930C340D930C930C930C930C930C95
:1001D000930C930CAD0C930C930C930C930C930C0D
:1001E000930C930CD60C930C930C930C930C930CD4
:1001F000930C930CAD0C930C930C930C930C930CED
:10020000930C930CD60C930C930C930C930C930CB3
:10021000930C930C200D930C930C930C930C930C58
:10022000930C930CF10C930C930C930C930C930C78
:10023000930C930CF10C930C930C930C930C930C68
:10024000930C930CF30C930C930C930C930C930C56
:10025000930C930C260D930C930C930C930C930C12
:10026000930C930CBE0C0D0A0A0A476F6F646279F7
:10027000652E2E2E206E6F20737061636520666F71
:10028000722069646C65207461736B210D0A000D26
:100290000A0A4672656520486561702053697A656F
:1002A0003A2025750D0A000D0A0A0A5377656C6C11
:1002B000210D0A006E616E00696E660000407A10C2
:1002C000F35A00A0724E18090010A5D4E80000E807
:1002D0007648170000E40B54020000CA9A3B000065
:1002E00000E1F505000080969800000040420F00F4
:1002F0000000A08601000000102700000000E803B5
:10030000000000006400000000000A00000000007F
:100310000100000000002C76D888DC674F0823DF3E
:10032000C1DFAE59E1B1B796E5E3E453C63AE65111
:10033000997696E8E6C28426EB898C9B62ED407C38
:100340006FFCEFBC9C9F40F2BAA56FA5F490055AD4
:100350002AF75C936B6CF9676DC11BFCE0E40D47F9
:10036000FEF520E6B500D0ED902E0300943577051C
:100370000080841E080000204E0A000000C80C33D4
:100380003333330F986E12831141EF8D2114893B63
:10039000E65516CFFEE6DB18D1844B381BF77C1DE3
:1003A000901DA4BBE424203284725E228100C9F136
:1003B00024ECA1E53D27A0E0B0E0E1EEF1E00C94F3
:1003C0001337E9E0CE2EAA24A39488248A94982C8B
:1003D0007724739405C00F900FBEBB2009F05FC057
:1003E0008091C702882309F480C08091BC028F5F8E
:1003F0008093BC02B0900C030FB6F8940F928091DA
:10040000BC0281508093BC028091BC02882319F702
:100410008091B6028823F9F280910303882371F159
:10042000E0910803F0910903C681D781CE010C96B3
:100430000E94D32F8E010E5F1F4FC8010E94D32F41
:100440009E898091B702891718F49093B7029E890C
:100450009C9DC001112487539D4FB8010E94822F9B
:10046000E091B402F091B5029E8986899817A0F2B6
:10047000A092B80280910303882391F68091C5026F
:10048000882309F04DC08091B802813009F0A3CFD4
:100490000E94912D0F900FBEBB2009F4A1CF0FB683
:1004A000F8940F92E0911103F091120306811781E5
:1004B000C80102960E94D32F8091B602815080938A
:1004C000B6028091C70281508093C7020F900FBE81
:1004D000F8018789908D0E94FD2DC8010E94FD2D95
:1004E0008091C702882309F080CF8091C9028230B1
:1004F00008F476CF0E94912D73CF8091C5028F5F53
:100500008093C502DD248091B802882309F095C04C
:10051000DD2009F092C08091C50281508093C50210
:100520008091C502882309F4AECF8091BC02882354
:1005300021F78091B9029091BA0201969093BA0284
:100540008093B902E090B902F090BA02E114F1048C
:1005500009F52091FF0230910003809101039091F1
:100560000203909300038093FF02309302032093D1
:1005700001038091BB028F5F8093BB02E091FF0279
:10058000F09100038081882309F073C09092560295
:10059000809255028091550290915602E816F90614
:1005A00008F44EC0DD24E091FF02F0910003808149
:1005B0008823F1F1E091FF02F09100030580F681BC
:1005C000E02DC681D7818A819B81E816F90608F45F
:1005D00061C08E010E5F1F4FC8010E94D32F8C890E
:1005E0009D89892B21F0CE010C960E94D32F9E89E4
:1005F0008091B702891718F49093B7029E899C9D49
:10060000C001112487539D4FB8010E94822FE091B1
:10061000B402F091B5029E898689981720F2DD24F4
:10062000D394E091FF02F09100038081882311F6BA
:10063000909256028092550204C07092B8026BCF1D
:10064000DD24E091B402F091B502868990E0FC01CE
:10065000EE0FFF1FEE0FFF1FEE0FFF1FE80FF91F3A
:10066000E753FD4F8081823008F44DCFDD24D394D1
:100670004ACFE091FF02F09100030580F681E02D62
:100680000680F781E02D82819381909356028093BA
:10069000550280CF9093560280935502D2CF1124F9
:1006A0001FBECFEFD1E2DEBFCDBF00E00CBF12E036
:1006B000A0E0B2E0EAE9FEE600E00BBF02C007906E
:1006C0000D92A639B107D9F71BBE15E1A6E9B2E034
:1006D00001C01D92AE3AB107E1F70E94080B0C94DD
:1006E0004B370C9400008F938FB78F93F8948091C1
:1006F00036158F5F80933615809137158F4F809315
:100700003715809138158F4F8093381580913915A2
:100710008F4F809339158F918FBF8F910895A1E1ED
:10072000B0E0E5E9F3E00C940E373C017F876E877B
:100730006A01FC0117821682838181FD03C06FEF7D
:100740007FEF71C39E012F5F3F4F398B288BF301E1
:100750002381EE85FF8523FD859123FF8191FF870E
:10076000EE87882309F45CC3853251F4EE85FF855A
:1007700023FD859123FF8191FF87EE87853229F440
:1007800090E0B3010E941F08E2CF982F10E0882468
:1007900099241032B0F49B3269F09C3228F49032E4
:1007A00051F0933271F40BC09D3239F0903349F41B
:1007B000116028C01260146025C0186023C0106149
:1007C00021C017FD2AC0892F80538A3078F416FF84
:1007D00006C0FAE09F9E902C1124980E13C03AE0B8
:1007E000839E802C1124880E10620CC09E3221F44E
:1007F00016FD16C3106406C09C3611F4106802C0C2
:10080000983659F4EE85FF8523FD959123FF91914C
:10081000FF87EE87992309F0BCCF892F8554833059
:1008200020F4812F8061905E07C0892F8556833028
:1008300008F0A1C1812F8F7E86FD02C076E0972E41
:100840006FE3F62EF822953619F4F0E4FF2A07C07C
:10085000963619F420E8F22A02C091109A94F7FE15
:100860000BC03BE3391520F427E05CE3B52E0EC046
:10087000B92CB39427E00AC047E0491528F427E0D3
:10088000BB2447E0942E02C0292DBB24C601049648
:100890009D878C87F6016081718182819381AE0191
:1008A0004F5F5F4F0B2D0E9418076C010981202EAE
:1008B000332400FF04C003FD02C01DE209C0F1FEA5
:1008C00002C01BE205C0F2FC02C010E001C010E251
:1008D000C1018C709070892BB9F1112311F483E060
:1008E00001C084E0881510F088240AC0881AF3FC3F
:1008F00007C080E290E0B3010E941F088A94C9F704
:10090000112329F0812F90E0B3010E941F0823FEDC
:1009100003C004EB12E00EC008EB12E00BC0E114C0
:10092000F10409F0805290E0B3010E941F080F5FAC
:100930001F4F05C0EF2CFF24F0E1EF22FF24F80148
:100940008491882361F714C1F7FE12C0BC0C24FE09
:1009500004C08A81813309F4BA941B141CF0BB24AF
:10096000B3942DC0F8E0FB1550F538E0B32E27C046
:10097000F6FC25C0892D90E08C159D054CF02CEFE0
:10098000C2162FEFD20624F030E8F32A01C09A9461
:10099000992049F0E2E0F0E0EC0FFD1FE90DF11DB8
:1009A00080818033A1F3F7FE0AC0B92CB394892D5E
:1009B00090E0C816D90614F0992401C09C18F7FCE1
:1009C00003C025E030E009C01C141D041CF021E028
:1009D00030E003C096012F5F3F4F112311F02F5FCE
:1009E0003F4F992029F0892D90E00196280F391F5B
:1009F000882D90E02817390714F0882401C0821A46
:100A00004F2C5524C20189709070892B39F008C091
:100A100080E290E0B3010E941F088A948820C1F709
:100A2000112329F0812F90E0B3010E941F0843FE9B
:100A300007C008C080E390E0B3010E941F088A94B9
:100A40008820C1F7F7FE46C08601D7FE02C000E04D
:100A500010E076010894E11CF11CE01AF10A41E073
:100A600050E04C0F5D1FE40EF51E26014B18510897
:100A7000892D90E0AA24BB24A81AB90A5FEF0F3F82
:100A8000150729F48EE290E0B3010E941F08C016FA
:100A9000D10634F0401651061CF4F701808101C0E4
:100AA00080E3015010400894E11CF11C0A151B055D
:100AB0002CF090E0B3010E941F08E0CF0C151D053B
:100AC00039F49A81963318F4953311F424FE81E3B6
:100AD00090E04BC08A81813309F00F7E90E0B30132
:100AE0000E941F089920A1F08EE290E0B3010E94BD
:100AF0001F0812E0E1E0F0E0EC0FFD1FE10FF11D37
:100B00001F5F808190E0B3010E941F089A9491F7C3
:100B100044FC03C085E690E002C085E490E0B301A8
:100B20000E941F08D7FC05C0C114D10441F404FF82
:100B300006C0D094C194D108D3948DE201C08BE259
:100B400090E0B3010E941F0880E305C08F5F26EF8D
:100B50003FEFC20ED31E3AE0C316D104BCF790E0BB
:100B6000B3010E941F08C601C096B3010E941F086E
:100B7000CC84DD8452C1933631F0933799F09335AC
:100B800009F059C023C0F601808189835E01089471
:100B9000A11CB11C22E030E0C20ED31E21E0E22EE7
:100BA000F12C12C0F601A080B18016FD03C06FEFDA
:100BB0007FEF02C0692D70E022E030E0C20ED31E4C
:100BC000C5010E9414087C011F7713C0F601A080A4
:100BD000B18016FD03C06FEF7FEF02C0692D70E09A
:100BE00022E030E0C20ED31EC5010E94F9077C014D
:100BF000106813FF07C01BC080E290E0B3010E94A1
:100C00001F088A94882D90E0E816F906A8F30FC013
:100C1000F50117FD859117FF81915F0190E0B30108
:100C20000E941F0881108A940894E108F108E114D9
:100C3000F10471F7F2C0943611F0993689F517FF77
:100C400008C0F601208131814281538184E090E027
:100C50000AC0F601808191819C01442737FD4095AF
:100C6000542F82E090E0C80ED91E9FE6F92EF122A3
:100C700057FF09C050954095309521953F4F4F4FF4
:100C80005F4F90E8F92ACA01B901AE014F5F5F4F8B
:100C90002AE030E00E94C308E82EE889EE1A41C03D
:100CA000953721F41F7E2AE030E01CC0197F9F3663
:100CB00061F0903720F4983509F0B2C00FC090373A
:100CC00039F0983709F0ACC004C028E030E00AC021
:100CD000106114FD146020E130E004C014FD1660C2
:100CE00020E132E017FF08C0F60160817181828146
:100CF000938144E050E008C0F60180819181BC01FD
:100D000080E090E042E050E0C40ED51EAE014F5F9F
:100D10005F4F0E94C308E82E5889E51A8FE7F82E26
:100D2000F122F6FE0BC08EEFF822E91438F4F4FE3F
:100D300007C0F2FC05C09FEEF92202C01E2D01C0C3
:100D4000192DF4FE0DC0FE01EE0DF11D80818033E2
:100D500019F4E9EEFE2208C01F5FF2FE05C003C0D1
:100D60008F2D867809F01F5F0F2DF3FC14C0F0FE65
:100D70000FC0181510F09E2C0BC09E2C980C911AC9
:100D8000182D06C080E290E0B3010E941F081F5F8B
:100D90001815C0F304C0181510F4811A01C0882476
:100DA00004FF0FC080E390E0B3010E941F0802FF20
:100DB0001DC001FD03C088E790E00EC088E590E00B
:100DC0000BC0802F867891F001FF02C08BE201C03A
:100DD00080E2F7FC8DE290E0B3010E941F0806C09C
:100DE00080E390E0B3010E941F089A94E914C0F3D5
:100DF000EA94E1E0F0E0EC0FFD1FEE0DF11D8081C3
:100E000090E0B3010E941F08EE2091F706C080E237
:100E100090E0B3010E941F088A948820C1F797CC04
:100E2000F30166817781CB016196E2E10C942A3768
:100E3000283008F027E03327DA01990F311D87FDAC
:100E4000916000966105710539F432602E5F3D9323
:100E500030E32A95E1F708959F3F30F0803871051F
:100E6000610509F03C5F3C5F3D93913008F080687C
:100E7000911DDF93CF931F930F93FF92EF92192F42
:100E8000987F9695E92F96959695E90FFF27EA5E4C
:100E9000FC4F99273327EE24FF24A701E701059093
:100EA0000894079428F4360FE71EF81E491F511DB9
:100EB000660F771F881F991F0694A1F70590079466
:100EC00028F4E70EF81E491F561FC11D770F881F13
:100ED000991F661F0694A1F70590079428F4F80E51
:100EE000491F561FC71FD11D880F991F661F771FE7
:100EF0000694A1F70590079420F4490F561FC71FC9
:100F0000D81F990F661F771F881F0694A9F7849131
:100F10001095177041F0D695C79557954795F7945A
:100F2000E7941A95C1F7ECEBF2E0689415901591EF
:100F300035916591959105907FE27395E118F10ADD
:100F4000430B560BC90BD009C0F7E10CF11E431F30
:100F5000561FC91FD01D7EF4703311F48A95E6CF59
:100F6000E894015030F0080F0AF40027021708F443
:100F7000202F2395022F7A3328F079E37D932A9549
:100F8000E9F710C07D932A9589F6069497956795A1
:100F9000379517951794E118F10A430B560BC90BB7
:100FA000D00998F023957E9173957A3308F070E319
:100FB0007C932013B8F77E9170617D9330F0839518
:100FC00071E37D9370E32A95E1F71124EF90FF9090
:100FD0000F911F91CF91DF91992787FD90950895EB
:100FE000FC0105900020E9F7809590958E0F9F1FDA
:100FF0000895FC010590615070400110D8F780956C
:1010000090958E0F9F1F0895FB01DC0102C0019097
:101010000D9241505040D8F70895DC0101C06D9306
:1010200041505040E0F70895FC016150704001903C
:101030000110D8F7809590958E0F9F1F08950F93FC
:101040001F93CF93DF938C01EB018B8181FF1BC03A
:1010500082FF0DC02E813F818C819D812817390729
:1010600064F4E881F9810193F983E88306C0E88597
:10107000F985802F1995892B31F48E819F810196F6
:101080009F838E8302C00FEF1FEFC801DF91CF91C6
:101090001F910F910895AEE0B0E0E1E5F8E00C9407
:1010A0001C370E891F8986E08C831A8309838FEF92
:1010B0009FE79E838D839E01265E3F4FCE01019662
:1010C000688D798DA9010E948F032F813885020FC9
:1010D000131FF80110822E96E4E00C943837AEE02E
:1010E000B0E0E5E7F8E00C941C378C0177FF02C014
:1010F00060E070E8615070407E836D831A830983DD
:1011000086E08C83CE010196BA01A9010E948F036B
:101110002D813E8137FD09C0EF81F8852E173F07ED
:101120000CF4F901E00FF11F10822E96E4E00C940C
:101130003837AEE0B0E0EFE9F8E00C941C378C01F2
:1011400077FF02C060E070E8615070407E836D837D
:101150001A8309838EE08C83CE010196BA01A9011E
:101160000E948F032D813E8137FD09C0EF81F885F4
:101170002E173F070CF4F901E00FF11F10822E9695
:10118000E4E00C943837FA01AA27283051F12031D5
:1011900081F1E8946F936E7F6E5F7F4F8F4F9F4F0B
:1011A000AF4FB1E03ED0B4E03CD0670F781F891F4D
:1011B0009A1FA11D680F791F8A1F911DA11D6A0F1B
:1011C000711D811D911DA11D20D009F468943F91CE
:1011D0002AE0269F11243019305D3193DEF6CF01CD
:1011E0000895462F4770405D4193B3E00FD0C9F793
:1011F000F6CF462F4F70405D4A3318F0495D31FD00
:101200004052419302D0A9F7EACFB4E0A695979552
:10121000879577956795BA95C9F700976105710528
:1012200008959B01AC010A2E069457954795379572
:101230002795BA95C9F7620F731F841F951FA01DCC
:1012400008951F93182F80915102909152026EEFD2
:101250000E940D308091510290915202612F0E94A4
:101260000D301F910895CF93DF93EC01613071052C
:1012700011F4405C5F4F842F80580E9421098091B7
:10128000510290915202BE010E94C434DF91CF916D
:101290000895A2E2B0E0EFE4F9E00C9416376C0197
:1012A0000E94B6139A83898381E00E94210900D0AD
:1012B00000D0EDB7FEB731968E010D5F1F4FADB771
:1012C000BEB712961C930E93119790E0E92E92E010
:1012D000F92EF382E282D6018C91848315820E94DA
:1012E0004B088DB79EB706960FB6F8949EBF0FBEFB
:1012F0008DBF83E092E060E070E040E050E00E944B
:101300003309C80160E070E045E050E00E94330915
:1013100000D000D0EDB7FEB73196ADB7BEB712968C
:101320001C930E931197F382E282D60111968C9151
:10133000848315820E944B088DB79EB706960FB620
:10134000F8949EBF0FBE8DBFC80160E070E048E01A
:1013500050E00E94330989E0A82E82E0B82EC50132
:1013600060E070E04AE050E00E94330900D000D015
:10137000EDB7FEB73196ADB7BEB712961C930E937C
:101380001197F382E282D60112968C9184831582A2
:101390000E944B088DB79EB706960FB6F8949EBF75
:1013A0000FBE8DBFC80160E070E04BE050E00E94CE
:1013B0003309C50160E070E04DE050E00E94330960
:1013C00000D000D0EDB7FEB73196ADB7BEB71296DC
:1013D0001C930E931197F382E282D60113968C919F
:1013E000848315820E944B088DB79EB706960FB670
:1013F000F8949EBF0FBE8DBFC80160E070E04EE064
:1014000050E00E94330900D000D0EDB7FEB731960E
:10141000ADB7BEB712961C930E931197F382E2827A
:10142000D60114968C91848315820E944B088DB747
:101430009EB706960FB6F8949EBF0FBE8DBFC8012B
:1014400061E070E040E050E00E943309C50161E0D6
:1014500070E042E050E00E94330900D000D0EDB7C8
:10146000FEB73196ADB7BEB712961C930E93119787
:10147000F382E282D60115968C91848315820E94B4
:101480004B088DB79EB706960FB6F8949EBF0FBE59
:101490008DBFC80161E070E043E050E00E94330975
:1014A000C50161E070E045E050E00E94330900D0E2
:1014B00000D0EDB7FEB73196ADB7BEB712961C930C
:1014C0000E931197F382E282D60116968C91848353
:1014D00015820E944B088DB79EB706960FB6F894FA
:1014E0009EBF0FBE8DBFC80161E070E046E050E0D6
:1014F0000E943309C50161E070E048E050E00E94BD
:10150000330900D000D0EDB7FEB73196ADB7BEB706
:1015100012961C930E931197F382E282D6011796CE
:101520008C91848315820E944B088DB79EB70696D6
:101530000FB6F8949EBF0FBE8DBFC80161E070E08A
:1015400049E050E00E943309C50161E070E04BE0E2
:1015500050E00E94330900D000D0EDB7FEB73196BD
:10156000ADB7BEB712961C930E931197F382E28229
:10157000D60118968C91848315820E944B088DB7F2
:101580009EB706960FB6F8949EBF0FBE8DBFC801DA
:1015900061E070E04CE050E00E943309C50161E079
:1015A00070E04EE050E00E943309CE01019664EFF6
:1015B00071E00E940628A296EAE00C943237982F38
:1015C0006D9A6B9A809101018860809301019E3130
:1015D00038F4759880910201886080930201739AB3
:1015E000892F8E518A3038F4739880910201886077
:1015F00080930201759A983238F080910201877FBA
:1016000080930201759A739A0895279A2F9AFFCFB3
:10161000AF92BF92CF92DF92EF92FF920F931F9300
:1016200081E090E040E855E260E070E02FEF30E0CC
:1016300000E410E00E94273690932C1580932B1520
:1016400087EA92E00E94163488E59BE06BE072E046
:1016500040E051E020E030E003E0EE24FF24CC2421
:10166000DD24AA24BB240E94112A00D00F928FE807
:1016700092E0EDB7FEB79283818385E090E094839A
:1016800083830E94C6350F900F900F900F900E9499
:10169000162B86E692E00E94163480E090E01F91BF
:1016A0000F91FF90EF90DF90CF90BF90AF90089593
:1016B000A6E2B0E0EEE5FBE00C94103773E0472EB5
:1016C000512C4C0E5D1ED201E3E8F2E082E1019064
:1016D0000D928150E1F781ED898384EA8A83EE24BB
:1016E000FF243E010894611C711C65E1862E912C3B
:1016F0008C0E9D1E58E1A52EB12CAC0EBD1E48E2ED
:10170000C42ED12CCC0EDD1E89E0E816F1042CF19C
:101710008E8980932D15F501AEE2B5E120E030E031
:101720008081280F311D8D933296EC15FD05C1F790
:10173000C9019595879595958795959587958093FA
:1017400053020E94DF0A8DE295E10E944909EE24CE
:10175000FF2489E0E816F104DCF684EB0E94550DC5
:101760008701000F111FC201800F911F62E00E94CC
:10177000010CC30162E00E94010CC401800F911FA3
:1017800062E00E944C0C0894E11CF11CBDCF8091DA
:10179000BC0080FDFCCF1092980288EF8093540229
:1017A00085EC8093BC0008958091BC0080FDFCCF47
:1017B0001092980288EF8093540285EE8093BC00CB
:1017C0000895AC018091BC0080FDFCCF6093B30212
:1017D000662371F020E030E0F901E556FD4FDA01B3
:1017E000A20FB31F8C9180832F5F3F4F2617A0F36A
:1017F0001092980288EF8093540285EC8093BC008D
:101800000895FC018091BC0080FDFCCF6093B30281
:10181000808180939B02808180FD11C0623078F0CE
:10182000DF01ECE9F2E0625070E063567D4F119603
:101830008C91119781931196E617F707C1F71092D3
:10184000980288EF8093540285EA8093BC00089543
:10185000AC018091BC0080FDFCCF2091980220FF5C
:1018600019C0662381F020E030E0FA01E20FF31F97
:10187000D901A556BD4F8C9180832F5F3F4F26170E
:10188000A0F320919802822F8D7F80939802822F5F
:101890008170089580E00895AC018091BC0080FDC6
:1018A000FCCF80919802282F217080FF13C06623FF
:1018B00089F020E030E0FA01E20FF31FD901A556CC
:1018C000BD4F8C9180832F5F3F4F2617A0F320914F
:1018D00098022170822F089580919902882319F02F
:1018E00089B189B1FDCF81E008958091BC0080FD70
:1018F000FCCF8091540208951F920F920FB60F9261
:101900000BB60F9211242F933F938F939F93AF9316
:10191000BF93EF93FF938091B90090E0FC0138975B
:10192000E13CF105B0F08091B9008093540285ED5F
:101930008093BC00FF91EF91BF91AF919F918F91E8
:101940003F912F910F900BBE0F900FBE0F901F90E5
:101950001895EE58FF4F0C94453780919A0290915C
:10196000BB00E82FF0E0E556FD4F90838F5F80933A
:101970009A028091980281608093980285EC80930E
:10198000BC00D8CF20919A028091BB00E22FF0E0FA
:10199000E556FD4F80832F5F20939A0230E08091BF
:1019A000B30290E001972817390744F385E8809344
:1019B000BC00C0CF10929A0290919A028091B3021B
:1019C000981708F05DC0E92FF0E0E556FD4F8081E3
:1019D0008093BB009F5F90939A0285E88093BC0040
:1019E000A9CF10929A0290919A02E92FF0E0E55661
:1019F000FD4F80818093BB009F5F90939A0285EC9E
:101A00008093BC0097CF8091BB00E0919A02F0E0F8
:101A1000E556FD4F80838091980281608093980203
:101A200084ED8093BC0086CF8091B90080935402EE
:101A300085EE8093BC007ECF85EE8093BC007ACF8C
:101A400084E0809399028093BC0074CF90919A02B5
:101A50008091B302981719F18091B90080935402D4
:101A600084E08093BC0066CF80919802846082609D
:101A70008093980210929A0285EC8093BC005ACF12
:101A80008091980281608093980284E98093BC00E1
:101A900051CF80919802EBCF20919A027FCF809115
:101AA0009802816080939802DBCF1F93182F80915A
:101AB000960290919702892BA9F08AB18C7F8AB9FE
:101AC0008BB183608BB91092B9008CE28093B8001F
:101AD0001093BA008FEF8093BB0084E08093BC002A
:101AE0001F91089581E060E043E00E9442139093CB
:101AF000970280939602009701F360E070E040E067
:101B000050E020E00E94AF10D8CF1F93182F809193
:101B1000960290919702892B69F08AB18C7F8AB9DD
:101B20001093BA008FEF8093BB0084E08093BC00D9
:101B30001F91089581E060E043E00E94421390937A
:101B4000970280939602009741F360E070E040E0D6
:101B500050E020E00E94AF10E0CF0FB6F8940F9253
:101B6000FC01828D0F900FBE0895FC010FB6F89412
:101B70000F92928D0F900FBE838D891B0895FC01EB
:101B8000828D0895FC01878D0895FC01678F08956B
:101B9000FC0180A10895FC01828D90E0882309F466
:101BA00091E0892F0895FC01928D20E0838D981794
:101BB00011F0822F089521E0822F0895CF93DF93B3
:101BC000EC0188819981009711F00E94FD2DCE01D2
:101BD0000E94FD2DDF91CF9108950F931F93CF9316
:101BE000DF93562FE72FEC018A8D8823F1F00E81C9
:101BF0001F816881798161157105A1F04C8D980173
:101C0000240F311D3F832E838A819B81281739073A
:101C100010F07F836E836E817F81852F9E2F50E031
:101C20000E9404081F830E8381E0DF91CF911F91F2
:101C30000F9108950F931F93CF93DF93FB018A01B8
:101C4000EC018A8D882319F168817981611571050C
:101C5000A1F04C8D8E819F81840F911D9F838E8377
:101C60002A813B818217930710F07F836E836E81F8
:101C70007F81CF0150E00E9404088A8D81508A8FB5
:101C80008D8D8F3F49F08D8D8F5F8D8F81E0DF913E
:101C9000CF911F910F9108958885882331F481E0B9
:101CA000DF91CF911F910F910895CE0108960E9468
:101CB000CA158823A1F30115110589F381E0F80104
:101CC0008083E5CFA5E0B0E0E8E6FEE00C941037B5
:101CD000562E472E5D834C83A22E8C0128E0C22E07
:101CE000D12CC80ED91E91E1E92EF12CE00EF11E87
:101CF00020E04E010894811C911C84E0682E712C18
:101D00006C0E7D1EBB24BA940FB6F8940F92F801A6
:101D1000828D882309F0ECC08C819D81892B09F488
:101D20001CC1222309F4D5C00F900FBE0E94B0132E
:101D30000FB6F8940F92F801858D8F3F09F4C7C054
:101D4000F801868D8F3F09F4C0C00F900FBEC4010B
:101D5000B3010E94D513882309F007C10FB6F89488
:101D60000F92F801828D0F900FBE882309F05FC09B
:101D7000F80180819181892B09F4AFC06C817D814C
:101D8000C7010E94B4170FB6F8940F92F801868D20
:101D900018164CF019C0F801868D8150868F868DFB
:101DA000181694F4F8018189882371F0C7010E9404
:101DB000CA15882381F30E941414F801868D81507E
:101DC000868F868D181674F3F801B68E0F900FBEAD
:101DD0000FB6F8940F92F801858D18164CF019C0C3
:101DE000F801858D8150858F858D181694F4F80142
:101DF0008085882371F0C6010E94CA15882381F36B
:101E00000E941414F801858D8150858F858D1816D8
:101E100074F3F801B58E0F900FBE0E94CA18882384
:101E200011F021E071CF0E94912D21E06DCF0FB60E
:101E3000F8940F92F801868D18164CF019C0F8012D
:101E4000868D8150868F868D181694F4F8018189CD
:101E5000882371F0C7010E94CA15882381F30E946C
:101E60001414F801868D8150868F868D181674F3B0
:101E7000F801B68E0F900FBE0FB6F8940F92F801CE
:101E8000858D18164CF019C0F801858D8150858F0D
:101E9000858D181694F4F8018085882371F0C601A9
:101EA0000E94CA15882381F30E941414F801858DBD
:101EB0008150858F858D181674F3F801B58E0F90BB
:101EC0000FBE0E94CA1821E01FCF168E3ECF158E7E
:101ED00037CFC4010E94CA1327CF0FB6F8940F92D0
:101EE000F801828193810E9442150F900FBE46CF68
:101EF000868097806081718161157105A1F0448DA4
:101F00009401240F311D3783268382819381281702
:101F1000390708F08CC0F80166817781852D942DF2
:101F200050E00E940408AA2009F073C0F801828DD5
:101F30008150828F80819181892B09F481C0F801C1
:101F40008085882309F46BC0C6010E94CA158130C0
:101F500009F065C00E94912D62C00F900FBE80E015
:101F60002596E0E10C942C3771C00FB6F8940F92CF
:101F7000F801868D18164CF019C0F801868D815035
:101F8000868F868D181694F4F8018189882371F064
:101F9000C7010E94CA15882381F30E941414F80116
:101FA000868D8150868F868D181674F38FEFF80119
:101FB000868F0F900FBE0FB6F8940F92F801858DA3
:101FC00018164CF019C0F801858D8150858F858DCC
:101FD000181694F4F8018085882371F0C6010E94D8
:101FE000CA15882381F30E941414F801858D81504D
:101FF000858F858D181674F38FEFF801858F0F90FC
:102000000FBE0E94CA1880E02596E0E10C942C37A0
:102010001DC0F801978286828189882359F40F9028
:102020000FBE81E02596E0E10C942C370FC077833A
:10203000668371CFC7010E94CA15882381F38ACFB6
:102040000E94F214F8019383828379CFEF92FF927A
:102050001F93CF93DF937A01122FEC019A8D8B8D12
:10206000981748F0223039F080E0DF91CF911F912E
:10207000FF90EF9008954C8D4423A9F488819981B5
:10208000892B09F465C08A8D8F5F8A8F8E8D8F3F73
:1020900089F18E8D8F5F8E8F81E0DF91CF911F91BF
:1020A000FF90EF900895112379F18E819F8150E088
:1020B0000E9404088C8D90E044275527481B590B3B
:1020C0008E819F81840F951F9F838E832881398104
:1020D0008217930730F48A819B81840F951F9F8319
:1020E0008E83123081F68A8D882369F28A8D815021
:1020F0008A8FC9CF89898823F1F481E0DF91CF915C
:102100001F91FF90EF9008958C819D8150E00E9477
:1021100004088C8D2C813D81280F311D3D832C833B
:102120008A819B812817390708F4ADCF888199816E
:102130009D838C83A8CFCE0141960E94CA15882327
:10214000E1F2E114F104C9F281E0F7018083A5CF47
:102150008A819B810E9410151B821A8294CFA5E070
:10216000B0E0E5EBF0E10C941037562E472E5D837E
:102170004C83B22E8C0158E0E52EF12CE80EF91EAE
:1021800041E1C42ED12CC80ED91E20E04E01089486
:10219000811C911C34E0632E712C6C0E7D1EAA24D0
:1021A000AA940FB6F8940F92F801928D838D981728
:1021B00008F4E0C0F2E0BF1609F4DCC08C819D8118
:1021C000892B09F41EC1222309F478C00F900FBE99
:1021D0000E94B0130FB6F8940F92F801858D8F3FCF
:1021E00009F46AC0F801868D8F3F09F463C00F902F
:1021F0000FBEC401B3010E94D513882309F009C1A1
:102200000FB6F8940F92F801928D0F900FBEF8015F
:10221000838D981709F456C00FB6F8940F92F80101
:10222000868D18164CF019C0F801868D8150868F66
:10223000868D181694F4F8018189882371F0C601FF
:102240000E94CA15882381F30E941414F801868D18
:102250008150868F868D181674F3F801A68E0F9024
:102260000FBE0FB6F8940F92F801858D18164CF03A
:1022700019C0F801858D8150858F858D181694F4CD
:10228000F8018085882371F0C7010E94CA15882350
:1022900081F30E941414F801858D8150858F858DFE
:1022A000181674F3F801A58E0F900FBE0E94CA187D
:1022B00021E077CF168E9BCF158E94CFC4010E945C
:1022C000CA1384CF6C817D81C7010E94B4170FB6F9
:1022D000F8940F92F801868D18164CF019C0F80189
:1022E000868D8150868F868D181694F4F801818929
:1022F000882371F0C6010E94CA15882381F30E94C9
:102300001414F801868D8150868F868D181674F30B
:10231000F801A68E0F900FBE0FB6F8940F92F80139
:10232000858D18164CF019C0F801858D8150858F68
:10233000858D181694F4F8018085882371F0C70103
:102340000E94CA15882381F30E941414F801858D18
:102350008150858F858D181674F3F801A58E0F9026
:102360000FBE0E94CA18882309F0A2CF0E94912DA7
:1023700021E017CFF801448D4423A9F48081918195
:10238000892B09F4BEC0F801828D8F5F828F81890D
:10239000882309F0ADC00F900FBE81E02596E0E1E3
:1023A0000C942C37B6C0BB2009F487C0F801868195
:1023B0009781652D742D50E00E940408F801848DEA
:1023C00090E044275527481B590B86819781840F3D
:1023D000951F97838683208131818217930730F47C
:1023E00082819381840F951F97838683F2E0BF16C5
:1023F00051F6F801828D882331F2828D8150828FCF
:10240000C2CF0F900FBE80E02596E0E10C942C37F0
:1024100080C00FB6F8940F92F801868D18164CF014
:1024200019C0F801868D8150868F868D181694F418
:10243000F8018189882371F0C6010E94CA1588239A
:1024400081F30E941414F801868D8150868F868D49
:10245000181674F38FEFF801868F0F900FBE0FB62A
:10246000F8940F92F801858D18164CF019C0F801F8
:10247000858D8150858F858D181694F4F80180859F
:10248000882371F0C7010E94CA15882381F30E9436
:102490001414F801858D8150858F858D181674F37D
:1024A0008FEFF801858F0F900FBE0E94CA1880E051
:1024B0002596E0E10C942C372CC0F801848195819D
:1024C000652D742D50E00E940408F801848D24814C
:1024D0003581280F311D358324838281938128170C
:1024E000390708F450CF80819181958384834BCF45
:1024F000C6010E94CA15813009F04DCF0E94912D6E
:102500004ACF828193810E941015F80113821282B2
:102510003ACF0F931F93CF93DF93182F81E290E070
:102520000E94702EEC01009719F11B821A82198209
:1025300018821D821C821F821E821A8E81E08B8F60
:102540001C8E8FEF8D8F8E8F18A3CE0108960E9460
:102550006E2F8E010F5E1F4FC8010E946E2F0FB6A7
:10256000F8940F929A8D8B8D981740F00F900FBEB4
:10257000CE01DF91CF911F910F9108954C8D44238F
:1025800091F488819981892B71F18A8D8F5F8A8F6F
:102590008989882301F50F900FBECE01DF91CF917D
:1025A0001F910F9108958C819D8160E070E050E053
:1025B0000E9404088C8D2C813D81280F311D3D83A4
:1025C0002C838A819B8128173907F8F288819981A9
:1025D0009D838C83DACFC8010E94CA158130D9F659
:1025E0000E94912DD8CF8A819B810E9410151B8259
:1025F0001A82CBCFCF93DF93EC010FB6F8940F92F2
:10260000EC8D2B8DE29FC001112448815981840FEC
:10261000951F9B838A831A8E5D834C8330E0215003
:102620003040F0E02E9FC0012F9F900D3E9F900DF7
:102630001124480F591F5F834E838FEF8D8F8E8F2C
:10264000662391F48885882331F40F900FBE81E0D2
:10265000DF91CF910895CE0108960E94CA1581306E
:10266000A1F70E94912DF1CFCE0108960E946E2F06
:10267000CE0141960E946E2F0F900FBE81E0DF9138
:10268000CF910895CF92DF92FF920F931F93CF9334
:10269000DF93182F062FF42E882359F440E050E0E2
:1026A000CA01DF91CF911F910F91FF90DF90CF90E2
:1026B000089581E290E00E94702EEC01009771F382
:1026C000C02EDD24812F90E09C01C29EC001C39EDC
:1026D000900DD29E900D112401960E94702E998328
:1026E00088830097B9F11B8F0C8F0FB6F8940F9267
:1026F0002B8D30E0C29EC001C39E900DD29E900DE6
:10270000112448815981840F951F9B838A831A8ED7
:102710005D834C83215030408C8D90E0BC01269F1E
:10272000C001279F900D369F900D1124480F591F0F
:102730005F834E838FEF8D8F8E8FCE0108960E9420
:102740006E2FCE0141960E946E2F0F900FBEF8A201
:10275000AE01A6CFCE010E94FD2D40E050E0A0CFFB
:102760008091BC028F5F8093BC0208950FB6F894ED
:102770000F922091B9023091BA020F900FBEC90199
:1027800008952091B9023091BA02C901089580914B
:10279000B6020895FC018091BB0280838091B9024A
:1027A0009091BA02928381830895FC01DB010FB6F8
:1027B000F8940F926091B9027091BA022D913C91F8
:1027C00011978FEF2F3F3807F9F09091BB0280816E
:1027D0008917F1F0418152816417750708F5CB0123
:1027E000841B950B82179307D8F4261B370B240FF5
:1027F000351F2D933C938091BB0280838091B90259
:102800009091BA029283818380E00F900FBE089569
:1028100041815281CB01841B950B8217930728F3CA
:1028200081E00F900FBE089581E08093B802089573
:10283000FC01009711F082A1089580E00895FC0149
:10284000009709F062A30895A0E0B0E0EAE2F4E1A5
:102850000C9410373C018B015A01DB018C918823C9
:1028600009F48DC01196ED91FC9112970280F381CD
:10287000E02D1296FC93EE93119723E0C22ED12CFB
:10288000C60ED71EEC15FD0509F483C0868097801F
:10289000FF249FE0E92E82E0482E512C8281938113
:1028A000F80192838183C816D90609F455C0D8016E
:1028B0001196ED91FC911297C681D781FE9CB001D3
:1028C0001124660D771DFB01D183C0836996D383E4
:1028D000C283699789A18483B682A5828E89878302
:1028E000F3E0AF16B10409F43FC08BA1FB01808770
:1028F0008CA19DA1AEA1BFA181879287A387B48738
:10290000AF89B88D8C91853A09F040C020E030E065
:1029100040E050E02F5F3F4F4F4F5F4FFD01E20F10
:10292000F31F8081853AB1F3C901DB011E969C93A8
:102930008E931D97F394C815D90511F1D8011196FE
:10294000ED91FC91129782819381F80192838183AA
:10295000C816D90609F0ABCFD60112968D919C917D
:10296000139792838183A3CF8C899D89892B09F446
:10297000BCCFDB0116965C924E921597B6CFFF2422
:102980008F2DCDB7DEB7E0E10C942C3780E090E0DE
:10299000CCCF8281938111968C93119712969C9340
:1029A0009C01F90173CF0097B1F0FC01A789B08DAC
:1029B0008C91853AA9F420E030E040E050E02F5FB0
:1029C0003F4F4F4F5F4FFD01E20FF31F8081853A6C
:1029D000B1F3822F0895E091B402F091B502E6CFF1
:1029E00080E008952091B4023091B502C9010895A4
:1029F000E091B402F091B50284859585A091B4026E
:102A0000B091B502E091B402F091B502468924E09C
:102A100030E0241B31091D963C932E931C9708959A
:102A20000F931F93CF93DF93EC01009731F19E89B1
:102A30008BA1981711F18E010E5F1F4FC8010E94E4
:102A4000D32F2BA12E8B8C859D8597FD06C084E00E
:102A500090E0821B91099D878C879E898091B702A7
:102A6000891710F49093B70289E0989FC001112450
:102A700087539D4FB8010E94822FDF91CF911F9104
:102A80000F9108950F931F93CF93DF93EC0100975D
:102A900041F13E89E091B402F091B5028689381780
:102AA00000F58C859D8597FD0BC0E091B402F091F7
:102AB000B502268984E090E0821B91099D878C876E
:102AC00089E0389FC001112487539D4F2A853B859B
:102AD0002817390759F0E091B402F091B5028689C0
:102AE0008E8BDF91CF911F910F9108958E010E5F14
:102AF0001F4FC8010E94D32FE091B402F091B5029C
:102B000096899E8B8091B702891710F49093B70233
:102B100089E0989FC001112487539D4FB8010E94FE
:102B2000822FDFCF0F931F93CF93DF93FC01706849
:102B300071836083C681D7810E94D32F8E010E5F7F
:102B40001F4FC8010E94D32F9E898091B702891719
:102B500010F49093B70289E0989FC0011124875325
:102B60009D4FB8010E94822FE091B402F091B5020E
:102B70009E898689891740F481E08093B802DF91AD
:102B8000CF911F910F91089580E0DF91CF911F9118
:102B90000F9108950F931F93CF93DF93DC01159648
:102BA000ED91FC91169706811781E8012C96CE01D4
:102BB0000E94D32F8091BC02882331F5E801229630
:102BC000CE010E94D32FF80196898091B702891710
:102BD00008F189E0989FC001112487539D4FBE01E1
:102BE0000E94822FE091B402F091B502D80156966E
:102BF0009C918689891788F481E08093B802DF91DF
:102C0000CF911F910F91089583E093E0BE010E9440
:102C1000822FE8CF9093B702DCCF80E0DF91CF9195
:102C20001F910F910895A0E0B0E0E9E1F6E10C9466
:102C300018378091BC02882309F089C08091B902BD
:102C40009091BA0201969093BA028093B902E090F3
:102C5000B902F090BA02E114F10419F52091FF02D3
:102C6000309100038091010390910203909300033F
:102C70008093FF0230930203209301038091BB02F3
:102C80008F5F8093BB02E091FF02F091000380818F
:102C9000882309F086C08FEF9FEF909356028093B0
:102CA00055028091550290915602E816F90608F4F3
:102CB00060C0DD2449E0C42EE091FF02F0910003E2
:102CC00080818823E9F1E091FF02F0910003058003
:102CD000F681E02DC681D7818A819B81E816F906AD
:102CE00008F477C08E010E5F1F4FC8010E94D32FDA
:102CF0008C899D89892B21F0CE010C960E94D32FBF
:102D00009E898091B702891710F49093B7029C9D19
:102D1000C001112487539D4FB8010E94822FE0917A
:102D2000B402F091B5029E898689981728F2DD24B5
:102D3000D394E091FF02F09100038081882319F67B
:102D40008FEF9FEF909356028093550213C08091AE
:102D5000C5028F5F8093C502DD248091B80288236D
:102D600011F0DD24D3948D2DCDB7DEB7E8E00C94BF
:102D70003437DD24E091B402F091B502868990E009
:102D8000FC01EE0FFF1FEE0FFF1FEE0FFF1FE80FFE
:102D9000F91FE753FD4F80818230F8F2DD24D39490
:102DA000DCCFE091FF02F09100030580F681E02D79
:102DB0000680F781E02D8281938190935602809363
:102DC00055028091550290915602E816F90688F254
:102DD00070CF9093560280935502CCCFDF92EF9242
:102DE000FF920F931F93CF93DF93EC018A859B850E
:102DF0008551934041F010E0812FCDB7DEB7E7E079
:102E00000C94353742C08C899D8923E0833092072A
:102E100091F3892B81F78091BC02882349F5DE88E4
:102E2000E091B402F091B502068952E0E52EF12C52
:102E3000EC0EFD1EC7010E94D32F6E898091B70250
:102E4000861710F46093B70210E0D01608F011E076
:102E500089E0689FC001112487539D4FB7010E94EC
:102E6000822F812FCDB7DEB7E7E00C9435370DC048
:102E70002C9683E093E0BE010E94822F10E0812F08
:102E8000CDB7DEB7E7E00C9435370F931F93CF93A0
:102E9000DF938A01E091B402F091B5027068758702
:102EA00064876091B4027091B502645F7F4F0E94A5
:102EB000822F8091B4029091B50202960E94D32F86
:102EC0008FEF0F3F180709F440C0C091B902D091AD
:102ED000BA02C00FD11FE091B402F091B502D383C2
:102EE000C2838091B9029091BA02C817D907E0F065
:102EF0008091FF02909100036091B4027091B5023D
:102F00006E5F7F4F0E94A12F8091550290915602D3
:102F1000C817D90720F4D0935602C0935502DF9109
:102F2000CF911F910F910895809101039091020319
:102F30006091B4027091B5026E5F7F4F0E94A12F25
:102F4000DF91CF911F910F9108956091B40270911C
:102F5000B5026E5F7F4F85E193E00E94822FDF9183
:102F6000CF911F910F9108950F931F93CF93DF93EC
:102F70008B016091B4027091B502645F7F4F0E9433
:102F8000A12F8091B4029091B50202960E94D32F96
:102F90008FEF0F3F180709F440C0C091B902D091DC
:102FA000BA02C00FD11FE091B402F091B502D383F1
:102FB000C2838091B9029091BA02C817D907E0F094
:102FC0008091FF02909100036091B4027091B5026C
:102FD0006E5F7F4F0E94A12F809155029091560203
:102FE000C817D90720F4D0935602C0935502DF9139
:102FF000CF911F910F910895809101039091020349
:103000006091B4027091B5026E5F7F4F0E94A12F54
:10301000DF91CF911F910F9108956091B40270914B
:10302000B5026E5F7F4F85E193E00E94822FDF91B2
:10303000CF911F910F910895EF92FF920F931F93DD
:103040008091BC02882309F093C01092B80280914D
:103050008400909185007C0100E010E0E092BD02C8
:10306000F092BE020093BF021093C0028091C10291
:103070009091C202A091C302B091C4028E159F0527
:10308000A007B107B0F4E091B402F091B502A80135
:103090009701281B390B4A0B5B0B84A195A1A6A1B4
:1030A000B7A1820F931FA41FB51F84A395A3A6A346
:1030B000B7A3E092C102F092C2020093C302109340
:1030C000C402E091B402F091B502A091B402B091B3
:1030D000B5022081318157968D919C915897821726
:1030E000930790F08091B4029091B5026091B40280
:1030F0007091B502675E7F4F0E94050B05C08091FD
:10310000B70281508093B7028091B70290E0FC0132
:10311000EE0FFF1FEE0FFF1FEE0FFF1FE80FF91F4F
:10312000E753FD4F8081882351F39091B70289E0E6
:10313000989FD0011124A753BD4F1196ED91FC919A
:1031400012970280F381E02D1296FC93EE93119773
:10315000CD010396E817F90799F08681978190933E
:10316000B5028093B4021F910F91FF90EF900895E4
:1031700081E08093B8021F910F91FF90EF90089526
:103180008281938111968C93119712969C939C0146
:10319000F901E3CFA0E0B0E0E0EDF8E10C941537E1
:1031A0000FB6F8940F928091BC0281508093BC02BC
:1031B0008091BC02882309F0EDC08091B60288237B
:1031C00009F4E8C0F9E0FF2EEE24E39480910303B4
:1031D000882369F1E0910803F0910903C681D78142
:1031E000CE010C960E94D32F8E010E5F1F4FC80197
:1031F0000E94D32F9E898091B702891710F4909373
:10320000B7029F9DC001112487539D4FB8010E94B2
:10321000822FE091B402F091B5029E8986899817B9
:10322000A8F2E092B80280910303882399F6809176
:10323000C502882309F4AAC08091C502882309F435
:10324000A5C0E9E0CE2EAA24AA94BA2C992493947E
:103250008091BC02882309F083C08091B9029091CB
:10326000BA0201969093BA028093B902E090B90233
:10327000F090BA02E114F10409F52091FF023091B7
:1032800000038091010390910203909300038093C7
:10329000FF0230930203209301038091BB028F5FF2
:1032A0008093BB02E091FF02F091000380818823AC
:1032B00009F097C0B0925602A09255028091550233
:1032C00090915602E816F90608F473C0DD24E091E7
:1032D000FF02F091000380818823E9F1E091FF0271
:1032E000F09100030580F681E02DC681D7818A81A7
:1032F0009B81E816F90608F485C08E010E5F1F4F0A
:10330000C8010E94D32F8C899D89892B21F0CE0181
:103310000C960E94D32F9E898091B702891710F4D2
:103320009093B7029C9DC001112487539D4FB80113
:103330000E94822FE091B402F091B5029E898689A5
:10334000981728F2DD24D394E091FF02F091000356
:103350008081882319F6B0925602A09255022AC0A5
:103360008091C5028F5F8093C502DD248091B802F1
:103370008823E1F4DD20D1F48091C502815080934F
:10338000C5028091C502882309F062CF8091B802FE
:10339000813041F080E00F900FBECDB7DEB7EBE09B
:1033A0000C9431370E94912D81E0F5CF9092B802B4
:1033B000E3CFDD24E091B402F091B502868990E07C
:1033C000FC01EE0FFF1FEE0FFF1FEE0FFF1FE80FB8
:1033D000F91FE753FD4F8081823040F2DD24D39402
:1033E000C5CFE091FF02F09100030580F681E02D4A
:1033F0000680F781E02D828193819093560280931D
:1034000055025CCF9093560280935502D3CFA4E02F
:10341000B0E0EDE0FAE10C940E371C01DC011C92E7
:103420008091B60289839091B6028FE0989FC00187
:1034300011240E94702E2C01009709F4ADC08981DF
:103440009091BC029F5F9093BC029091B602891745
:1034500008F4A6C084E0C82E1C82CA94BC81EFE0A8
:10346000BE9F50011124A40CB51CF9E0CF9E700141
:10347000112449EC52E0E40EF51ED7018C9188230B
:1034800009F484C11196ED91FC9112970280F381A9
:10349000E02D1296FC93EE93119703E0802E912C71
:1034A0008E0C9F1CE815F90509F42CC56680778001
:1034B000DD2482819381F7019283818388169906A6
:1034C00009F45FC0D7011196ED91FC9112976681C6
:1034D0007781BFE0DB9E800111240A0D1B1DF801DE
:1034E00071836083675E7F4F73836283695170402D
:1034F000DB0191968C919197848341E050E0568353
:10350000458356968C915697878393968C91939783
:10351000808794968D919D910D90BC91A02D81876F
:103520009287A387B487FB01A789B08D8C91853AD8
:1035300009F0D4C220E030E040E050E02F5F3F4F80
:103540004F4F5F4FFD01E20FF31F8081853AB1F3CA
:10355000C901D8011E969C938E931D97D39466162D
:10356000770609F414C1D7011196ED91FC911297D9
:1035700082819381F701928381838816990609F0ED
:10358000A1CFD40112968D919C9113979283818340
:1035900099CFC2010E94FD2D2496E2E10C942A37B6
:1035A0001B820FB6F8940F928091BC0281508093D9
:1035B000BC028091BC02882309F0A4C18091B602AC
:1035C000882309F49FC199E0D92ECC24C39480911B
:1035D0000303882399F1E0910803F0910903068120
:1035E0001781C8010C960E94D32F22E0E22EF12C05
:1035F000E00EF11EC7010E94D32FF8019689809139
:10360000B702891718F49093B70296899D9DC0015F
:10361000112487539D4FB7010E94822FE091B4027D
:10362000F091B502D80156969C918689981778F248
:10363000C092B80280910303882369F68091C50285
:10364000882309F459C18091C502882309F454C123
:1036500089E0A82E8091BC02882309F035C18091B1
:10366000B9029091BA0201969093BA028093B9027E
:10367000C090B902D090BA02C114D10419F52091BA
:10368000FF02309100038091010390910203909317
:1036900000038093FF023093020320930103809183
:1036A000BB028F5F8093BB02E091FF02F0910003A9
:1036B0008081882309F004C4EFEFFFEFF0935602F6
:1036C000E09355028091550290915602C816D90692
:1036D00008F4DDC3BB24E091FF02F0910003808178
:1036E000882309F44CC0E091FF02F09100030580AB
:1036F000F681E02D06811781D80112968D919C915B
:103700001397C816D90608F4F5C3B2E0EB2EF12CD6
:10371000E00EF11EC7010E94D32FF801848995891C
:10372000892B21F0C8010C960E94D32FD801569600
:103730009C9156978091B702891720F49093B70215
:1037400056969C919A9DC001112487539D4FB701B5
:103750000E94822FE091B402F091B502D8015696F2
:103760009C918689981708F4B6CFBB24B394E09156
:10377000FF02F09100038081882309F0B4CF4FEF5E
:103780005FEF509356024093550282C3DD24BC8103
:10379000BD0DBC83CC2009F060CE8FE0B89F5001F6
:1037A0001124A40CB51CE090FF02F0900003F70177
:1037B0008081882309F495C10180F281E02D028087
:1037C000F381E02DD7011296FC93EE93119713E04D
:1037D000812E912C8E0C9F1CE815F90509F4A3C3CA
:1037E00066807780DD24AFE0CA2E82819381F70165
:1037F000928381838816990609F45EC0D7011196D9
:10380000ED91FC91129766817781DC9C80011124F7
:103810000A0D1B1DF80171836083675E7F4F738300
:10382000628369517040DB0191968C9191978483FA
:1038300042E050E05683458356968C915697878395
:1038400093968C919397808794968D919D910D90EE
:10385000BC91A02D81879287A387B487FB01A7899C
:10386000B08D8C91853A09F042C320E030E040E011
:1038700050E02F5F3F4F4F4F5F4FFD01E20FF31FAF
:103880008081853AB1F3C901D8011E969C938E932D
:103890001D97D3946616770609F424C1D7011196B3
:1038A000ED91FC91129782819381F701928381833C
:1038B0008816990609F0A2CFD40112968D919C9199
:1038C0001397928381839ACF8091C5028F5F8093F3
:1038D000C502BB248091B802882309F0D4C2BB2062
:1038E00009F0D1C28091C50281508093C5028091B8
:1038F000C502882309F0AECE8091B802813011F460
:103900000E94912D0F900FBEEB81E983C401B3019A
:1039100024E630E040E050E00E94EC3659016A01B4
:10392000A114B104C104D10409F433CE1A829A81DE
:103930008981981708F02DCEECE18E2EE2E09E2EC4
:103940007BE2672E72E0772E60C08A812A814DB7B4
:103950005EB74A5050400FB6F8945EBF0FBE4DBFE1
:10396000ADB7BEB71196EDB7FEB73282218213967E
:103970009C928E92129790E0FC01EE0FFF1FE80FD1
:10398000F91FCF01880F991F880F991FE80FF91FA2
:10399000E40DF51D8281938115969C938E93149767
:1039A00030E0F901EE0FFF1FE20FF31FCF01880F88
:1039B000991F880F991FE80FF91FE40DF51D8185E8
:1039C000928517969C938E9316971996FC92EE9279
:1039D00018970E944B084DB75EB7465F5F4F0FB612
:1039E000F8945EBF0FBE4DBFD1010D900020E9F7E6
:1039F0001197A219B3098A818F5F8A839A8189817D
:103A0000981708F0C6CD2A0E3B1E8A8190E0FC0173
:103A1000EE0FFF1FE80FF91FCF01880F991F880FC6
:103A2000991FE80FF91FE40DF51D618572858385E7
:103A30009485A60195010E94EC3679018A01E11472
:103A4000F1040105110509F080CF8A812A81ADB703
:103A5000BEB718970FB6F894BEBF0FBEADBF119694
:103A6000EDB7FEB73282218213967C926E92129746
:103A700090E0FC01EE0FFF1FE80FF91FCF01880F48
:103A8000991F880F991FE80FF91FE40DF51D82811A
:103A9000938115969C938E93149730E0F901EE0F65
:103AA000FF1FE20FF31FCF01880F991F880F991F87
:103AB000E80FF91FE40DF51D8185928517969C93FB
:103AC0008E9316970E944B084DB75EB7485F5F4FC5
:103AD0000FB6F8945EBF0FBE4DBF86CF80E090E07A
:103AE00038CDDD24CC80CD0C8FE0C89E5001112450
:103AF000A40CB51CE0900103F0900203F701808153
:103B0000882309F486C00180F281E02D0280F381D0
:103B1000E02DD7011296FC93EE93119773E0872E58
:103B2000912C8E0C9F1CE815F90509F406C26680DD
:103B30007780DD2482819381F701928381838816C7
:103B4000990609F45EC0D7011196ED91FC91129788
:103B500066817781BFE0DB9E800111240A0D1B1D69
:103B6000F80171836083675E7F4F7383628369515D
:103B70007040DB0191968C919197848342E050E0F4
:103B80005683458356968C915697878393968C914E
:103B90009397808794968D919D910D90BC91A02DC7
:103BA00081879287A387B487FB01A789B08D8C9109
:103BB000853A09F099C120E030E040E050E02F5F05
:103BC0003F4F4F4F5F4FFD01E20FF31F8081853A5A
:103BD000B1F3C901D8011E969C938E931D97D3947F
:103BE00066167706B9F0D7011196ED91FC91129700
:103BF00082819381F701928381838816990609F067
:103C0000A2CFD40112968D919C91139792838183B8
:103C10009ACFDD24ED2CEC0C8FE0E89E600111249E
:103C2000C40CD51C80910C03882309F47CC0E0915E
:103C30000D03F0910E030280F381E02DF0930E034B
:103C4000E0930D03B3E0EF30FB0709F480C1E0918E
:103C50000D03F0910E03A680B780FF246FE0762E4F
:103C600054E0852E912C0280F381E02DF0930E0319
:103C7000E0930D0343E0EF30F40709F4FDC0E09159
:103C80000D03F0910E0366817781F79C800111246A
:103C90000C0D1D1DD80111967C936E93675E7F4FAE
:103CA00013967C936E93129769517040FB0181A12A
:103CB00014968C93149716969C928E9215978689DB
:103CC00017968C93179783A118968C9384A195A12E
:103CD000A6A1B7A1F80181879287A387B487FB01CA
:103CE000A789B08D8C91853A09F0FBC020E030E0C7
:103CF00040E050E02F5F3F4F4F4F5F4FFD01E20F1D
:103D0000F31F8081853AB1F3C901D8011E969C93B7
:103D10008E931D97F394A616B70631F0E0910D032C
:103D2000F0910E03A0CFFF24EF0C8FE0E89E60011E
:103D30001124C40CD51C80911503882309F48AC072
:103D4000E0911603F09117030280F381E02DF093C8
:103D50001703E0931603B3E0E831FB0709F4DCC076
:103D6000E0911603F0911703A680B780FF2443E08B
:103D7000842E912C32E0632E712C0280F381E02D91
:103D8000F0931703E093160343E0E831F40709F4D6
:103D90006CC0E0911603F0911703668177815FE0B4
:103DA000F59E800111240C0D1D1DD80111967C93E8
:103DB0006E93675E7F4F13967C936E931297695153
:103DC0007040FB0181A114968C93149716969C92D7
:103DD0008E921597868917968C9317978489958963
:103DE000892B21F016967C926E921597DB019396A3
:103DF0008C919397F801808794968D919D910D9069
:103E0000BC91A02D81879287A387B487FB01A789E6
:103E1000B08D8C91853A09F072C020E030E040E02E
:103E200050E02F5F3F4F4F4F5F4FFD01E20FF31FF9
:103E30008081853AB1F3C901D8011E969C938E9377
:103E40001D97F394A616B70631F0E0911603F09192
:103E5000170393CFFF24FE0CFB8280918400909186
:103E600085003C01882499249CCB82819381909386
:103E70001703809316038DCF8281938190930E0355
:103E800080930D03FCCEB1E0B093B8022BCDBB24E0
:103E9000E091B402F091B502868990E0FC01EE0F4A
:103EA000FF1FEE0FFF1FEE0FFF1FE80FF91FE75375
:103EB000FD4F8081823008F40DCDBB24B3940ACD30
:103EC000E091FF02F09100030580F681E02D06806D
:103ED000F781E02D82819381909356028093550261
:103EE000F1CB80E090E011CF80E090E073CE80E0F5
:103EF00090E0CACC9093560280935502C9CF80E0DF
:103F000090E09ACF8281938111968C9311971296AB
:103F10009C939C01F901CACA8281938190931703F3
:103F2000809316031DCF8281938111968C931197F4
:103F300012969C939C01F90153CC82819381119636
:103F40008C93119712969C939C01F901F0CD82817C
:103F5000938190930E0380930D0379CEA3E0B0E09C
:103F6000E4EBFFE10C940E371C01DC011C92809104
:103F7000B60289839091B6028FE0989FC001112408
:103F80000E94702E5C01009709F4ADC08981909168
:103F9000BC029F5F9093BC029091B602891708F40F
:103FA000A6C064E0C62E1B82CA94BB81EFE0BE9F10
:103FB000400111248A0C9B1CF9E0CF9E7001112452
:103FC00029EC32E0E20EF31ED7018C91882309F42C
:103FD00082C11196ED91FC9112970280F381E02D40
:103FE0001296FC93EE93119753E0652E712C6E0C94
:103FF0007F1CE615F70509F4FEC446805780DD24D2
:1040000082819381F701928381836816790609F48E
:104010005FC0D7011196ED91FC911297668177816F
:10402000BFE0DB9E80011124080D191DF80171838A
:104030006083675E7F4F7383628369517040DB01E9
:1040400091968C919197848321E030E0368325838B
:1040500056968C915697878393968C9193978087E9
:1040600094968D919D910D90BC91A02D8187928702
:10407000A387B487FB01A789B08D8C91853A09F09D
:10408000AEC220E030E040E050E02F5F3F4F4F4FA6
:104090005F4FFD01E20FF31F8081853AB1F3C90143
:1040A000D8011E969C938E931D97D394461657065F
:1040B00009F412C1D7011196ED91FC9112978281FA
:1040C0009381F701928381836816790609F0A1CF65
:1040D000D30112968D919C9113979283818399CFEE
:1040E000C5010E94FD2D2396E2E10C942A37772426
:1040F0000FB6F8940F928091BC0281508093BC025D
:104100008091BC02882309F0A2C18091B602882365
:1041100009F49DC1A9E0DA2ECC24C3948091030355
:10412000882399F1E0910803F09109030681178132
:10413000C8010C960E94D32FB2E0EB2EF12CE00EBA
:10414000F11EC7010E94D32FF80196898091B70212
:10415000891718F49093B70296899D9DC001112488
:1041600087539D4FB7010E94822FE091B402F091D6
:10417000B502D80156969C918689981778F2C0921C
:10418000B80280910303882369F68091C5028823D1
:1041900009F457C18091C502882309F452C1F9E09E
:1041A000CF2E44244A94542C662463948091BC02FC
:1041B000882309F02EC18091B9029091BA0201962C
:1041C0009093BA028093B9028090B9029090BA029B
:1041D0008114910409F52091FF0230910003809130
:1041E000010390910203909300038093FF023093A8
:1041F0000203209301038091BB028F5F8093BB0277
:10420000E091FF02F09100038081882309F0D1C37F
:10421000509256024092550280915502909156025A
:104220008816990608F4ACC3DD24E091FF02F091F2
:1042300000038081882309F449C0E091FF02F091D6
:1042400000030580F681E02D06811781F801828147
:1042500093818816990608F4C6C3E2E0EE2EF12C8D
:10426000E00EF11EC7010E94D32FD80154968D9104
:104270009C915597892B21F0C8010C960E94D32F51
:10428000F80196898091B702891718F49093B702C4
:1042900096899C9DC001112487539D4FB7010E94B0
:1042A000822FE091B402F091B502D80156969C910C
:1042B0008689981708F4B9CFDD24D394E091FF02E2
:1042C000F09100038081882309F0B7CF5092560205
:1042D0004092550256C3DD24BB81BD0DBB83CC206B
:1042E00009F062CE8FE0B89F400111248A0C9B1C1C
:1042F000E090FF02F0900003F7018081882309F429
:1043000071C10180F281E02D0280F381E02DD7019F
:104310001296FC93EE93119743E0642E712C6E0C71
:104320007F1CE615F70509F477C346805780DD2426
:104330003FE0C32E82819381F701928381836816C7
:10434000790609F45EC0D7011196ED91FC911297A0
:1043500066817781DC9C80011124080D191DF8010C
:1043600071836083675E7F4F73836283695170409E
:10437000DB0191968C919197848322E030E0368323
:10438000258356968C915697878393968C91939715
:10439000808794968D919D910D90BC91A02D8187E1
:1043A0009287A387B487FB01A789B08D8C91853A4A
:1043B00009F016C320E030E040E050E02F5F3F4FAF
:1043C0004F4F5F4FFD01E20FF31F8081853AB1F33C
:1043D000C901D8011E969C938E931D97D3944616BF
:1043E000570609F400C1D7011196ED91FC9112977F
:1043F00082819381F701928381836816790609F09F
:10440000A2CFD30112968D919C91139792838183B1
:104410009ACF8091C5028F5F8093C502DD24809181
:10442000B802882309F0A9C2DD2009F0A6C2809154
:10443000C50281508093C5028091C502882309F08E
:10444000B5CE8091B802813011F40E94912D0F9069
:104450000FBE79821A829A818981981708F040CE1E
:104460006AE3E62E62E0F62E8FC0019709F4B4C02D
:1044700000E010E08A812A814A816A81EDB7FEB7A7
:104480003E970FB6F894FEBF0FBEEDBFADB7BEB7F7
:104490001196328221821396FC92EE92129790E04E
:1044A000FC01EE0FFF1FE80FF91FCF01880F991FC6
:1044B000880F991FE80FF91FEA0DFB1D8281938178
:1044C00015969C938E93149717961C930E9316979C
:1044D00030E0F901EE0FFF1FE20FF31FCF01880F4D
:1044E000991F880F991FE80FF91FEA0DFB1D87819F
:1044F00018968C93189719961C92199750E0FA0108
:10450000EE0FFF1FE40FF51FCF01880F991F880FD3
:10451000991FE80FF91FEA0DFB1D858596851B96EF
:104520009C938E931A9770E0FB01EE0FFF1FE60F2E
:10453000F71FCF01880F991F880F991FE80FF91FE8
:10454000EA0DFB1D84811C968C931C971D961C9272
:104550000E944B08D1010D900020E9F71197A21994
:10456000B3098A818F5F8A839A8189812DB73EB78B
:10457000225F3F4F0FB6F8943EBF0FBE2DBF981776
:1045800008F0AECD2A0E3B1E8A8190E0FC01EE0FB2
:10459000FF1FE80FF91FCF01880F991F880F991F80
:1045A000E80FF91FEA0DFB1D858196818230910588
:1045B00069F08330910508F458CF8330910549F0B4
:1045C000049709F055CF04E410E054CF02E410E062
:1045D00051CF03E510E04ECF02E510E04BCF80E075
:1045E00090E05ECDDD24CB80CD0C8FE0C89E4001F5
:1045F00011248A0C9B1CE0900103F0900203F70148
:104600008081882309F486C00180F281E02D028038
:10461000F381E02DD7011296FC93EE93119723E0DE
:10462000622E712C6E0C7F1CE615F70509F4FEC195
:1046300046805780DD2482819381F70192838183B4
:104640006816790609F45EC0D7011196ED91FC91C8
:10465000129766817781BFE0DB9E80011124080DEF
:10466000191DF80171836083675E7F4F73836283D6
:1046700069517040DB0191968C919197848322E07F
:1046800030E03683258356968C9156978783939690
:104690008C919397808794968D919D910D90BC916C
:1046A000A02D81879287A387B487FB01A789B08D4E
:1046B0008C91853A09F091C120E030E040E050E073
:1046C0002F5F3F4F4F4F5F4FFD01E20FF31F808180
:1046D000853AB1F3C901D8011E969C938E931D971C
:1046E000D39446165706B9F0D7011196ED91FC9177
:1046F000129782819381F7019283818368167906EC
:1047000009F0A2CFD30112968D919C9113979283B9
:1047100081839ACFDD24ED2CEC0C8FE0E89E6001C4
:104720001124CA0CDB1C80910C03882309F47CC083
:10473000E0910D03F0910E030280F381E02DF093E0
:104740000E03E0930D03B3E0EF30FB0709F478C1EB
:10475000E0910D03F0910E0386809780FF249FE087
:10476000592E84E0682E712C0280F381E02DF093A5
:104770000E03E0930D0323E0EF30F20709F4F6C0D7
:10478000E0910D03F0910E0366817781F59C800125
:1047900011240C0D1D1DD80111967C936E93675E3C
:1047A0007F4F13967C936E93129769517040FB0173
:1047B00081A114968C93149716967C926E921597FD
:1047C000868917968C93179783A118968C9384A14A
:1047D00095A1A6A1B7A1F80181879287A387B48785
:1047E000FB01A789B08D8C91853A09F0F3C020E0D8
:1047F00030E040E050E02F5F3F4F4F4F5F4FFD01F3
:10480000E20FF31F8081853AB1F3C901D8011E96EA
:104810009C938E931D97F3948616970631F0E09142
:104820000D03F0910E03A0CFFF24EF0C8FE0E89E64
:1048300060011124CA0CDB1C80911503882309F444
:104840008AC0E0911603F09117030280F381E02DF6
:10485000F0931703E0931603B3E0E831FB0709F484
:10486000D4C0E0911603F091170386809780FF244F
:1048700003E0602E712C12E0412E512C0280F38156
:10488000E02DF0931703E093160323E0E831F207DD
:1048900009F465C0E0911603F091170366817781F2
:1048A0003FE0F39E800111240C0D1D1DD8011196CF
:1048B0007C936E93675E7F4F13967C936E931297F3
:1048C00069517040FB0181A114968C931497169640
:1048D0007C926E921597868917968C931797848988
:1048E0009589892B21F016965C924E921597DB01E3
:1048F00093968C919397F801808794968D919D91D2
:104900000D90BC91A02D81879287A387B487FB016E
:10491000A789B08D8C91853A09F06AC020E030E01B
:1049200040E050E02F5F3F4F4F4F5F4FFD01E20FE0
:10493000F31F8081853AB1F3C901D8011E969C937B
:104940008E931D97F3948616970631F0E091160327
:10495000F091170393CFFF247F2C7E0CC9CB82816B
:104960009381909317038093160394CF8281938150
:1049700090930E0380930D0303CF6092B80257CD3E
:10498000DD24E091B402F091B502868990E0FC014B
:10499000EE0FFF1FEE0FFF1FEE0FFF1FE80FF91FB7
:1049A000E753FD4F8081823008F439CDDD24D39464
:1049B00036CDE091FF02F09100030580F681E02DF5
:1049C0000680F781E02D8281938190935602809337
:1049D000550222CC80E090E019CF80E090E07BCEC1
:1049E00080E090E0F6CC9093560280935502C9CFB8
:1049F00080E090E0A2CF8281938111968C931197F1
:104A000012969C939C01F901F8CA8281938190933C
:104A100017038093160325CF8281938111968C937F
:104A2000119712969C939C01F9017FCC828193810E
:104A300011968C93119712969C939C01F901F8CDD5
:104A40008281938190930E0380930D0381CE0F9307
:104A50001F93CF93DF93EC01009789F08091B4020C
:104A60009091B502C817D90751F00FB6F8940F927C
:104A70008A859B858551934039F00F900FBEDF9159
:104A8000CF911F910F9108958C899D8923E08330E8
:104A9000920799F3892B89F78E010E5F1F4FC8018A
:104AA0000E94D32F9E898091B702891710F49093AA
:104AB000B70289E0989FC001112487539D4FB80128
:104AC0000E94822FE091B402F091B5029E898689FE
:104AD000981798F20E94912DD0CFEF92FF920F93EA
:104AE0001F93CF93DF930FB6F8940F92009709F4BA
:104AF000DDC0EC018E010E5F1F4FC8010E94D32F55
:104B00008C899D89892B21F0CE010C960E94D32F90
:104B100085E193E0B8010E94822F0F900FBE809133
:104B2000B4029091B502C817D90761F18091C6020D
:104B3000882391F00FB6F8940F92E091FF02F09164
:104B400000038081882369F48FEF9FEF90935602D2
:104B5000809355020F900FBECDB7DEB7E6E00C9400
:104B60003637E091FF02F09100030580F681E02DD9
:104B70000680F781E02D8281938190935602809385
:104B80005502E8CF8091C602882309F098C0909121
:104B9000B60280911503891709F494C08091BC0274
:104BA000882309F088C01092B80280918400909107
:104BB00085007C0100E010E0E092BD02F092BE02B0
:104BC0000093BF021093C0028091C1029091C20273
:104BD000A091C302B091C4028E159F05A007B10732
:104BE000B0F4E091B402F091B502A8019701281B3E
:104BF000390B4A0B5B0B84A195A1A6A1B7A1820F2B
:104C0000931FA41FB51F84A395A3A6A3B7A3E092E7
:104C1000C102F092C2020093C3021093C402E09159
:104C2000B402F091B502A091B402B091B502208116
:104C3000318157968D919C9158978217930730F048
:104C400046C08091B70281508093B7028091B7022D
:104C500090E0FC01EE0FFF1FEE0FFF1FEE0FFF1F96
:104C6000E80FF91FE753FD4F8081882351F390919E
:104C7000B70289E0989FD0011124A753BD4F119628
:104C8000ED91FC9112970280F381E02D1296FC9336
:104C9000EE931197CD010396E817F90729F1868164
:104CA00097819093B5028093B40256CFC091B4021D
:104CB000D091B5021FCF81E08093B8024DCF0E9402
:104CC000912D4ACF1092B5021092B40245CF809137
:104CD000B4029091B5026091B4027091B502675E22
:104CE0007F4F0E94050BB2CF8281938111968C93E6
:104CF000119712969C939C01F901D1CFA0E0B0E0EE
:104D0000E4E8F6E20C9415379C01009741F40E9408
:104D1000912DCDB7DEB7EBE00C94313777C18091A0
:104D2000BC028F5F8093BC02C091B902D091BA02DD
:104D3000C20FD31F8091B4029091B50202960E94D7
:104D4000D32FE091B402F091B502D383C283809156
:104D5000B9029091BA02C817D90708F45BC08091D4
:104D6000FF02909100036091B4027091B5026E5FF2
:104D70007F4F0E94A12F8091550290915602C81733
:104D8000D90720F4D0935602C09355020FB6F89479
:104D90000F928091BC0281508093BC028091BC0232
:104DA000882309F04DC08091B602882309F448C0D9
:104DB00099E0F92EEE24E394809103038823B9F15E
:104DC000E0910803F0910903C681D781CE010C96CA
:104DD0000E94D32F8E010E5F1F4FC8010E94D32F58
:104DE0009E898091B702891710F49093B7029F9D16
:104DF000C001112487539D4FB8010E94822FE0917A
:104E0000B402F091B5029E8986899817A8F2E092C3
:104E1000B802D2CF80910103909102036091B40255
:104E20007091B5026E5F7F4F0E94A12FAFCF80912E
:104E3000C502882389F48091B802813009F495C0B5
:104E400080E00F900FBE882309F461CFCDB7DEB7A5
:104E5000EBE00C943137DAC08091C502882359F316
:104E600089E0C82EAA24AA94BA2C992493948091FC
:104E7000BC02882309F07DC08091B9029091BA02EA
:104E800001969093BA028093B902E090B902F09033
:104E9000BA02E114F10409F52091FF0230910003F8
:104EA0008091010390910203909300038093FF028D
:104EB00030930203209301038091BB028F5F8093A4
:104EC000BB02E091FF02F09100038081882309F08A
:104ED00087C0B0925602A0925502809155029091DF
:104EE0005602E816F90608F45EC0DD24E091FF02E0
:104EF000F09100038081882309F46DC0E091FF02E6
:104F0000F09100030580F681E02DC681D7818A816A
:104F10009B81E816F90608F474C08E010E5F1F4FDE
:104F2000C8010E94D32F8C899D89892B21F0CE0145
:104F30000C960E94D32F9E898091B702891710F496
:104F40009093B7029C9DC001112487539D4FB801D7
:104F50000E94822FE091B402F091B5029E89868969
:104F6000981720F2DD24D394C1CF0E94912D81E0C7
:104F700068CF8091C5028F5F8093C502DD24809148
:104F8000B802882369F4DD2059F48091C50281506C
:104F90008093C5028091C502882309F068CF4BCF6A
:104FA0009092B802F2CFDD24E091B402F091B50204
:104FB000868990E0FC01EE0FFF1FEE0FFF1FEE0F42
:104FC000FF1FE80FF91FE753FD4F80818230B8F2D1
:104FD000DD24D394D4CFB0925602A0925502E4CFF0
:104FE000E091FF02F09100030580F681E02D06803C
:104FF000F781E02D82819381909356028093550230
:105000006CCF9093560280935502CECFA0E0B0E0D3
:10501000ECE0F8E20C941537FC01EB018091BC0246
:105020008F5F8093BC022091B9023091BA028081D7
:105030009181C80FD91F2817390708F016C1C81762
:10504000D90708F024C12C173D0708F020C1D183EF
:10505000C0838091B4029091B50202960E94D32F32
:10506000E091B402F091B502D383C2838091B9027A
:105070009091BA02C817D90708F4FCC08091FF02CA
:10508000909100036091B4027091B5026E5F7F4F02
:105090000E94A12F8091550290915602C817D907FE
:1050A00020F4D0935602C09355020FB6F8940F9295
:1050B0008091BC0281508093BC028091BC02882305
:1050C00009F003C18091B602882309F4FEC049E0CB
:1050D000F42EEE24E39480910303882369F1E09198
:1050E0000803F0910903C681D781CE010C960E9476
:1050F000D32F8E010E5F1F4FC8010E94D32F9E89B0
:105100008091B702891710F49093B7029F9DC00158
:10511000112487539D4FB8010E94822FE091B40261
:10512000F091B5029E8986899817A8F2E092B8029C
:1051300080910303882399F68091C502882309F49E
:10514000BFC08091C502882309F4BAC039E0C32EDC
:10515000AA24AA94BA2C992493948091BC028823FF
:1051600009F098C08091B9029091BA02019690938B
:10517000BA028093B902E090B902F090BA02E11449
:10518000F10409F52091FF023091000380910103A1
:1051900090910203909300038093FF0230930203E7
:1051A000209301038091BB028F5F8093BB02E0914B
:1051B000FF02F09100038081882309F0ADC0B09216
:1051C0005602A09255028091550290915602E8161F
:1051D000F90608F489C0DD24E091FF02F091000394
:1051E00080818823E9F1E091FF02F09100030580BE
:1051F000F681E02DC681D7818A819B81E816F90668
:1052000008F49BC08E010E5F1F4FC8010E94D32F70
:105210008C899D89892B21F0CE010C960E94D32F79
:105220009E898091B702891710F49093B7029C9DD4
:10523000C001112487539D4FB8010E94822FE09135
:10524000B402F091B5029E898689981728F2DD2470
:10525000D394E091FF02F09100038081882319F636
:10526000B0925602A092550240C0C817D90708F460
:10527000EECEE9CE80910103909102036091B402D9
:105280007091B5026E5F7F4F0E94A12F0ECFD18328
:10529000C0830BCF8091C5028F5F8093C502DD2450
:1052A0008091B8028823E9F4DD20D9F48091C50209
:1052B00081508093C5028091C502882309F04DCFAB
:1052C0008091B802813009F43DC080E00F900FBE9C
:1052D000882311F40E94912DCDB7DEB7EBE00C943A
:1052E00031379092B802E2CFDD24E091B402F09120
:1052F000B502868990E0FC01EE0FFF1FEE0FFF1F45
:10530000EE0FFF1FE80FF91FE753FD4F808182303A
:1053100038F2DD24D394C4CFE091FF02F091000372
:105320000580F681E02D0680F781E02D8281938152
:10533000909356028093550246CF909356028093E5
:105340005502D3CF0E94912D81E0C0CF0F931F93C0
:10535000CF93DF930FB6F8940F92009709F453C0E0
:10536000EC018E010E5F1F4FC8010E94D32F8C8964
:105370009D89892B21F0CE010C960E94D32F8CE0C1
:1053800093E0B8010E94822F8091C7028F5F8093C3
:10539000C7028091C8028F5F8093C8020F900FBE32
:1053A0008091C602882319F18091B4029091B502D0
:1053B000C817D90769F10FB6F8940F92E091FF0270
:1053C000F091000380818823B9F0E091FF02F09111
:1053D00000030580F681E02D0680F781E02D8281B3
:1053E000938190935602809355020F900FBEDF91E8
:1053F000CF911F910F9108958FEF9FEF90935602D9
:1054000080935502F2CFC091B402D091B502A9CFDA
:105410000E94912DECCFF8941092C6020E94112D9B
:105420000895A0E0B0E0E7E1FAE20C940E372C0119
:10543000362E272E5A013901102F470188E290E0BD
:105440000E94702EEC01009709F4ADC0C114D10484
:1054500009F49DC0D88ECF8AC60165EA70E0A50127
:105460000E940D08EF88F88C832D922D9C01F90184
:10547000DE0190E0808159968C9359978081882332
:1054800029F09F5F319611969830A1F718A2012F4D
:10549000143008F07AC00E8B0BA372E0C72ED12C0B
:1054A000CC0EDD1EC6010E947E2FCE010C960E94FE
:1054B0007E2FD987C88784E090E0801B91099D8763
:1054C0008C87DB8BCA8B1CA21DA21EA21FA2089474
:1054D000A108B108C7018A0D9B1DB201A3010E945A
:1054E0007D2C998388838114910419F0F401D18370
:1054F000C0830FB6F8940F928091B6028F5F8093AD
:10550000B6028091B4029091B502892B09F452C081
:105510008091C602882359F4E091B402F091B5025B
:105520008689181720F0D093B502C093B4028091F9
:10553000C8028F5F8093C80289A39E898091B702B9
:10554000891710F49093B70289E0989FC001112445
:1055500087539D4FB6010E94822F0F900FBE8091FE
:10556000C602882359F0E091B402F091B502868911
:10557000811720F40E94912D81E001C081E0CDB718
:10558000DEB7E2E10C942A3751C003E084CFC501B5
:105590000E94702E6C01988F8F8B009709F05CCF62
:1055A000CE010E94FD2D8FEFCDB7DEB7E2E10C9466
:1055B0002A373CC0D093B502C093B4028091B602A2
:1055C000813009F0B4CF89EC92E00E946E2F82ED19
:1055D00092E00E946E2F8BED92E00E946E2F84EE7F
:1055E00092E00E946E2F6DEEE62E62E0F62EC7016D
:1055F0000E946E2F56EFA52E52E0B52EC5010E94D7
:105600006E2F83E093E00E946E2F8CE093E00E9467
:105610006E2F85E193E00E946E2FF0920003E092DE
:10562000FF02B0920203A092010381CFA0E0B0E09C
:10563000ECE1FBE20C94183788E290E00E94702EB7
:10564000EC01009709F491C085E590E00E94702E6E
:10565000988F8F8B009709F4C7C065EA70E045E525
:1056600050E00E940D080F89188DECE4F2E0DE0195
:10567000808159968C9359978081882331F0319697
:10568000119682E0E435F80799F718A21E8A1BA24A
:10569000F2E0CF2ED12CCC0EDD1EC6010E947E2F53
:1056A000CE010C960E947E2FD987C88784E090E0B7
:1056B0009D878C87DB8BCA8B1CA21DA21EA21FA2FA
:1056C000C8018C5A9F4F6BED71E040E050E00E94A2
:1056D0007D2C998388830FB6F8940F928091B6023F
:1056E0008F5F8093B6028091B4029091B502892BAE
:1056F00009F441C08091C602882359F4E091B402B4
:10570000F091B5028689882321F4D093B502C09325
:10571000B4028091C8028F5F8093C80289A39E89DA
:105720008091B702891710F49093B70289E0989F8F
:10573000C001112487539D4FB6010E94822F0F9004
:105740000FBE8091C602882321F08091B40290910F
:10575000B502F89481E08093C6021092BA021092CA
:10576000B9020E94FE2F0E94C82CCDB7DEB7E8E038
:105770000C94343741C0D093B502C093B4028091E9
:10578000B602813031F689EC92E00E946E2F82EDF4
:1057900092E00E946E2F8BED92E00E946E2F84EEBD
:1057A00092E00E946E2FEDEEEE2EE2E0FE2EC7019B
:1057B0000E946E2F06EF12E0C8010E946E2F83E058
:1057C00093E00E946E2F8CE093E00E946E2F85E1A3
:1057D00093E00E946E2FF0920003E092FF0210937C
:1057E00002030093010395CFCE010E94FD2DCDB79A
:1057F000DEB7E8E00C943437AF92BF92DF92EF92BD
:10580000FF920F931F93CF93DF93EC015A01809186
:10581000BC028F5F8093BC028091B602681708F4C7
:105820006AC000E014E08FE0D82EB9E0EB2E1150F2
:10583000AFE0FA2E0D9DC00111241E9DB001112470
:1058400067537D4F8C0F9D1F41E050E00E94241450
:10585000080F112361F76091FF02709100030F9D03
:10586000C00111248C0F9D1F42E050E00E942414BF
:10587000102F180F60910103709102031F9DC0014A
:1058800011248C0F9D1F42E050E00E942414180F39
:105890001F9DC00111248C0F9D1F6CE073E044E03C
:1058A00050E00E942414180F1F9DC00111248C0F7A
:1058B0009D1F65E173E043E050E00E942414180F3F
:1058C000A114B10459F08091840090918500A0E06A
:1058D000B0E0F50180839183A283B3830E94CA184C
:1058E000812FDF91CF911F910F91FF90EF90DF906B
:1058F000BF90AF90089510E0F1CFFC0191E190834B
:1059000022E2229383E38293629372931292129221
:1059100080E8829312921292129282E0829383E044
:10592000829384E0829385E0829386E0829387E08D
:10593000829388E0829389E0829380E182939293BC
:1059400082E1829383E1829384E1829385E1829371
:1059500086E1829387E1829388E1829389E1829351
:1059600080E2829381E28293229383E28293429344
:10597000529386E2829387E2829388E2829389E25D
:10598000829380E3829381E382933197CF010895DC
:1059900084EF91E090931F0380931E039093210363
:1059A0008093200381E08093990083EF8093980097
:1059B0008BE080939100E1E7F0E08081826080835A
:1059C000A091B402B091B502CD91CDBFDD91DEBF03
:1059D000FF91EF91DF91CF91BF91AF919F918F9107
:1059E0007F916F915F914F913F912F911F910F91F7
:1059F000FF90EF90DF90CF90BF90AF909F908F90EF
:105A00007F906F905F904F903F902F901F900F90DE
:105A10000CBE0F900BBE0F900FBE0F90089581E04B
:105A2000089508950F920FB6F8940F920BB60F9247
:105A30000CB60F921F9211242F923F924F925F92B9
:105A40006F927F928F929F92AF92BF92CF92DF928E
:105A5000EF92FF920F931F932F933F934F935F9378
:105A60006F937F938F939F93AF93BF93CF93DF9366
:105A7000EF93FF93A091B402B091B5020DB60D92D1
:105A80000EB60D928091200390912103019790937F
:105A9000210380932003892B09F435C00E9413163B
:105AA000882311F00E941C18A091B402B091B50295
:105AB000CD91CDBFDD91DEBFFF91EF91DF91CF9111
:105AC000BF91AF919F918F917F916F915F914F9116
:105AD0003F912F911F910F91FF90EF90DF90CF900A
