:100000000C9443030C9465030C9465030C946503F2
:100010000C9465030C9465030C9465030C946503C0
:100020000C9465030C9465030C9465030C946503B0
:100030000C9465030C9465030C9465030C946503A0
:100040000C9465030C9465030C9465030C94650390
:100050000C9465030C9465030C9465030C94650380
:100060000C9465030C948D3B0C948C3C0C946503B0
:100070000C9465030C9465030C9465030C94650360
:100080000C94B6340C9465030C9465030C946503CE
:100090000C94643B0C94633C0C9465030C94A41383
:1000A0000C9465030C94AF100C9465030C946503D9
:1000B0000C9465030C9465100C943A110C94650330
:1000C0000C9465030C9465030C948A100C943B3BD0
:1000D0000C943A3C0C9465030C94123B0C94113C28
:1000E0000C9465030214BB13BB13BB13BB13BB13EC
:1000F000BB13BB130214BB13BB13BB13BB13BB1348
:10010000BB13BB130414BB13BB13BB13BB13BB1335
:10011000BB13BB133C14BB13BB13BB13BB13BB13ED
:10012000BB13BB130414BB13BB13BB13BB13BB1315
:10013000BB13BB133C14BB13BB13BB13BB13BB13CD
:10014000BB13BB134414BB13BB13BB13BB13BB13B5
:10015000BB13BB137414BB13BB13BB13BB13BB1375
:10016000BB13BB13BB13BB13BB13BB13BB13BB131F
:10017000BB13BB13EA13BB13BB13BB13BB13BB13E0
:10018000BB13BB132B14BB13BB13BB13BB13BB138E
:10019000BB13BB137114BB13BB13BB13BB13BB1338
:1001A000BB13BB137114BB13BB13BB13BB13BB1328
:1001B000BB13BB135C14BB13BB13BB13BB13BB132D
:1001C000BB13BB135C14BB13BB13BB13BB13BB131D
:1001D000BB13BB13D513BB13BB13BB13BB13BB1395
:1001E000BB13BB13FE13BB13BB13BB13BB13BB135C
:1001F000BB13BB13D513BB13BB13BB13BB13BB1375
:10020000BB13BB13FE13BB13BB13BB13BB13BB133B
:10021000BB13BB134814BB13BB13BB13BB13BB13E0
:10022000BB13BB131914BB13BB13BB13BB13BB13FF
:10023000BB13BB131914BB13BB13BB13BB13BB13EF
:10024000BB13BB131B14BB13BB13BB13BB13BB13DD
:10025000BB13BB134E14BB13BB13BB13BB13BB139A
:10026000BB13BB13E6130D0A0A0A476F6F6462796A
:10027000652E2E2E206E6F20737061636520666F71
:10028000722069646C65207461736B210D0A000D26
:100290000A0A0A5377656C6C210D0A006E616E00C4
:1002A000696E660000407A10F35A00A0724E180979
:1002B0000010A5D4E80000E87648170000E40B54CD
:1002C000020000CA9A3B000000E1F505000080969C
:1002D0009800000040420F000000A08601000000CE
:1002E000102700000000E803000000006400000088
:1002F00000000A00000000000100000000002C7651
:10030000D888DC674F0823DFC1DFAE59E1B1B7966B
:10031000E5E3E453C63AE651997696E8E6C28426C8
:10032000EB898C9B62ED407C6FFCEFBC9C9F40F2A4
:10033000BAA56FA5F490055A2AF75C936B6CF96720
:100340006DC11BFCE0E40D47FEF520E6B500D0EDE5
:10035000902E0300943577050080841E080000204D
:100360004E0A000000C80C333333330F986E1283EB
:100370001141EF8D2114893BE65516CFFEE6DB18BF
:10038000D1844B381BF77C1D901DA4BBE424203284
:1003900084725E228100C9F124ECA1E53D27A0E032
:1003A000B0E0E5EDF1E00C945340E9E0CE2EAA2454
:1003B000A39488248A94982C7724739405C00F9072
:1003C0000FBEBB2009F05FC080917003882309F441
:1003D00080C0809165038F5F80936503B090B50303
:1003E0000FB6F8940F928091650381508093650356
:1003F00080916503882319F780915F038823F9F2C0
:100400008091AC03882371F1E091B103F091B203C4
:10041000C681D781CE010C960E94FB368E010E5FFD
:100420001F4FC8010E94FB369E8980916003891787
:1004300018F4909360039E899C9DC00111248E58EE
:100440009C4FB8010E94AA36E0915D03F0915E03D3
:100450009E8986899817A0F2A09261038091AC03CF
:10046000882391F680916E03882309F04DC0809116
:100470006103813009F0A3CF0E94B9340F900FBE01
:10048000BB2009F4A1CF0FB6F8940F92E091BA0304
:10049000F091BB0306811781C80102960E94FB36CA
:1004A00080915F03815080935F038091700381503E
:1004B000809370030F900FBEF8018789908D0E9482
:1004C0002535C8010E94253580917003882309F0E5
:1004D00080CF80917203823008F476CF0E94B934C5
:1004E00073CF80916E038F5F80936E03DD248091C4
:1004F0006103882309F095C0DD2009F092C0809146
:100500006E03815080936E0380916E03882309F4FB
:10051000AECF80916503882321F78091620390918B
:10052000630301969093630380936203E0906203F8
:10053000F0906303E114F10409F52091A8033091D0
:10054000A9038091AA039091AB039093A903809390
:10055000A8033093AB032093AA03809164038F5FB9
:1005600080936403E091A803F091A903808188231C
:1005700009F073C090927E0280927D0280917D028C
:1005800090917E02E816F90608F44EC0DD24E09151
:10059000A803F091A90380818823F1F1E091A803D9
:1005A000F091A9030580F681E02DC681D7818A816B
:1005B0009B81E816F90608F461C08E010E5F1F4F9B
:1005C000C8010E94FB368C899D89892B21F0CE01C0
:1005D0000C960E94FB369E8980916003891718F45F
:1005E000909360039E899C9DC00111248E589C4F5E
:1005F000B8010E94AA36E0915D03F0915E039E89E6
:100600008689981720F2DD24D394E091A803F09115
:10061000A9038081882311F690927E0280927D0248
:1006200004C0709261036BCFDD24E0915D03F09113
:100630005E03868990E0FC01EE0FFF1FEE0FFF1FA7
:10064000EE0FFF1FE80FF91FEE58FC4F808182303C
:1006500008F44DCFDD24D3944ACFE091A803F09164
:10066000A9030580F681E02D0680F781E02D8281C7
:10067000938190937E0280937D0280CF90937E023F
:1006800080937D02D2CF11241FBECFEFD1E2DEBF17
:10069000CDBF00E00CBF13E0A0E0B2E0E2E4F1E87F
:1006A00000E00BBF02C007900D92AA30B107D9F746
:1006B0001BBE16E1AAE0B3E001C01D92A236B1074D
:1006C000E1F70E94190F0C949F400C9400008F9347
:1006D0008FB78F93F8948091EA158F5F8093EA1516
:1006E0008091EB158F4F8093EB158091EC158F4F18
:1006F0008093EC158091ED158F4F8093ED158F91C0
:100700008FBF8F910895A1E1B0E0E9E8F3E00C9488
:100710004E403C017F876E876A01FC01178216827A
:10072000838181FD03C06FEF7FEF71C39E012F5F57
:100730003F4F398B288BF3012381EE85FF8523FD05
:10074000859123FF8191FF87EE87882309F45CC39D
:10075000853251F4EE85FF8523FD859123FF81913C
:10076000FF87EE87853229F490E0B3010E941308D9
:10077000E2CF982F10E0882499241032B0F49B32F5
:1007800069F09C3228F4903251F0933271F40BC02E
:100790009D3239F0903349F4116028C01260146022
:1007A00025C0186023C0106121C017FD2AC0892F01
:1007B00080538A3078F416FF06C0FAE09F9E902C92
:1007C0001124980E13C03AE0839E802C1124880EC9
:1007D00010620CC09E3221F416FD16C3106406C0D0
:1007E0009C3611F4106802C0983659F4EE85FF85E6
:1007F00023FD959123FF9191FF87EE87992309F0BF
:10080000BCCF892F8554833020F4812F8061905E86
:1008100007C0892F8556833008F0A1C1812F8F7EB4
:1008200086FD02C076E0972E6FE3F62EF82295360D
:1008300019F4F0E4FF2A07C0963619F420E8F22AEA
:1008400002C091109A94F7FE0BC03BE3391520F4D7
:1008500027E05CE3B52E0EC0B92CB39427E00AC0A4
:1008600047E0491528F427E0BB2447E0942E02C056
:10087000292DBB24C60104969D878C87F6016081D3
:10088000718182819381AE014F5F5F4F0B2D0E947A
:100890000C076C010981202E332400FF04C003FDE6
:1008A00002C01DE209C0F1FE02C01BE205C0F2FC5D
:1008B00002C010E001C010E2C1018C709070892B61
:1008C000B9F1112311F483E001C084E0881510F020
:1008D00088240AC0881AF3FC07C080E290E0B301C4
:1008E0000E9413088A94C9F7112329F0812F90E000
:1008F000B3010E94130823FE03C00CE912E00EC0EE
:1009000000EA12E00BC0E114F10409F0805290E01B
:10091000B3010E9413080F5F1F4F05C0EF2CFF2487
:10092000F0E1EF22FF24F8018491882361F714C1DC
:10093000F7FE12C0BC0C24FE04C08A81813309F486
:10094000BA941B141CF0BB24B3942DC0F8E0FB1523
:1009500050F538E0B32E27C0F6FC25C0892D90E075
:100960008C159D054CF02CEFC2162FEFD20624F00B
:1009700030E8F32A01C09A94992049F0E2E0F0E0CF
:10098000EC0FFD1FE90DF11D80818033A1F3F7FE0F
:100990000AC0B92CB394892D90E0C816D90614F07A
:1009A000992401C09C18F7FC03C025E030E009C081
:1009B0001C141D041CF021E030E003C096012F5FE1
:1009C0003F4F112311F02F5F3F4F992029F0892DC0
:1009D00090E00196280F391F882D90E028173907DD
:1009E00014F0882401C0821A4F2C5524C20189704A
:1009F0009070892B39F008C080E290E0B3010E942A
:100A000013088A948820C1F7112329F0812F90E0E0
:100A1000B3010E94130843FE07C008C080E390E0C2
:100A2000B3010E9413088A948820C1F7F7FE46C0DC
:100A30008601D7FE02C000E010E076010894E11CB8
:100A4000F11CE01AF10A41E050E04C0F5D1FE40E8A
:100A5000F51E26014B185108892D90E0AA24BB24CD
:100A6000A81AB90A5FEF0F3F150729F48EE290E04C
:100A7000B3010E941308C016D10634F04016510687
:100A80001CF4F701808101C080E3015010400894FC
:100A9000E11CF11C0A151B052CF090E0B3010E942B
:100AA0001308E0CF0C151D0539F49A81963318F41C
:100AB000953311F424FE81E390E04BC08A818133A9
:100AC00009F00F7E90E0B3010E9413089920A1F075
:100AD0008EE290E0B3010E94130812E0E1E0F0E042
:100AE000EC0FFD1FE10FF11D1F5F808190E0B3014E
:100AF0000E9413089A9491F744FC03C085E690E0A5
:100B000002C085E490E0B3010E941308D7FC05C041
:100B1000C114D10441F404FF06C0D094C194D1089B
:100B2000D3948DE201C08BE290E0B3010E941308E0
:100B300080E305C08F5F26EF3FEFC20ED31E3AE081
:100B4000C316D104BCF790E0B3010E941308C6019C
:100B5000C096B3010E941308CC84DD8452C1933641
:100B600031F0933799F0933509F059C023C0F6015D
:100B7000808189835E010894A11CB11C22E030E0D1
:100B8000C20ED31E21E0E22EF12C12C0F601A0808D
:100B9000B18016FD03C06FEF7FEF02C0692D70E0DA
:100BA00022E030E0C20ED31EC5010E9408087C017D
:100BB0001F7713C0F601A080B18016FD03C06FEF50
:100BC0007FEF02C0692D70E022E030E0C20ED31E3C
:100BD000C5010E94ED077C01106813FF07C01BC010
:100BE00080E290E0B3010E9413088A94882D90E07F
:100BF000E816F906A8F30FC0F50117FD859117FF58
:100C000081915F0190E0B3010E94130881108A94E2
:100C10000894E108F108E114F10471F7F2C0943688
:100C200011F0993689F517FF08C0F601208131814E
:100C30004281538184E090E00AC0F6018081918175
:100C40009C01442737FD4095542F82E090E0C80E68
:100C5000D91E9FE6F92EF12257FF09C05095409505
:100C6000309521953F4F4F4F5F4F90E8F92ACA01C9
:100C7000B901AE014F5F5F4F2AE030E00E94E80803
:100C8000E82EE889EE1A41C0953721F41F7E2AE04C
:100C900030E01CC0197F9F3661F0903720F4983502
:100CA00009F0B2C00FC0903739F0983709F0ACC0E6
:100CB00004C028E030E00AC0106114FD146020E197
:100CC00030E004C014FD166020E132E017FF08C0D8
:100CD000F601608171818281938144E050E008C017
:100CE000F60180819181BC0180E090E042E050E01B
:100CF000C40ED51EAE014F5F5F4F0E94E808E82E7C
:100D00005889E51A8FE7F82EF122F6FE0BC08EEF18
:100D1000F822E91438F4F4FE07C0F2FC05C09FEE97
:100D2000F92202C01E2D01C0192DF4FE0DC0FE01D6
:100D3000EE0DF11D8081803319F4E9EEFE2208C02A
:100D40001F5FF2FE05C003C08F2D867809F01F5F7C
:100D50000F2DF3FC14C0F0FE0FC0181510F09E2CE0
:100D60000BC09E2C980C911A182D06C080E290E0C2
:100D7000B3010E9413081F5F1815C0F304C01815B3
:100D800010F4811A01C0882404FF0FC080E390E0B2
:100D9000B3010E94130802FF1DC001FD03C088E7D4
:100DA00090E00EC088E590E00BC0802F867891F02F
:100DB00001FF02C08BE201C080E2F7FC8DE290E00F
:100DC000B3010E94130806C080E390E0B3010E94C3
:100DD00013089A94E914C0F3EA94E1E0F0E0EC0F10
:100DE000FD1FEE0DF11D808190E0B3010E941308FC
:100DF000EE2091F706C080E290E0B3010E94130854
:100E00008A948820C1F797CCF30166817781CB0162
:100E10006196E2E10C946A40283008F027E033271D
:100E2000DA01990F311D87FD91600096610571050A
:100E300039F432602E5F3D9330E32A95E1F708954F
:100E40009F3F30F080387105610509F03C5F3C5FE1
:100E50003D93913008F08068911DDF93CF931F93ED
:100E60000F93FF92EF92192F987F9695E92F969501
:100E70009695E90FFF27E250FD4F99273327EE247F
:100E8000FF24A701E70105900894079428F4360F82
:100E9000E71EF81E491F511D660F771F881F991FF7
:100EA0000694A1F70590079428F4E70EF81E491F51
:100EB000561FC11D770F881F991F661F0694A1F743
:100EC0000590079428F4F80E491F561FC71FD11D1F
:100ED000880F991F661F771F0694A1F70590079446
:100EE00020F4490F561FC71FD81F990F661F771F81
:100EF000881F0694A9F784911095177041F0D69534
:100F0000C79557954795F794E7941A95C1F7E4EA82
:100F1000F2E0689415901591359165919591059041
:100F20007FE27395E118F10A430B560BC90BD00908
:100F3000C0F7E10CF11E431F561FC91FD01D7EF4E0
:100F4000703311F48A95E6CFE894015030F0080F21
:100F50000AF40027021708F4202F2395022F7A3372
:100F600028F079E37D932A95E9F710C07D932A95BF
:100F700089F6069497956795379517951794E11814
:100F8000F10A430B560BC90BD00998F023957E91BB
:100F900073957A3308F070E37C932013B8F77E9151
:100FA00070617D9330F0839571E37D9370E32A95B2
:100FB000E1F71124EF90FF900F911F91CF91DF91F6
:100FC000992787FD90950895FC0105900020E9F789
:100FD000809590958E0F9F1F0895FC01059061509C
:100FE00070400110D8F7809590958E0F9F1F08953F
:100FF000FB01DC0102C001900D9241505040D8F736
:101000000895DC0101C06D9341505040E0F7089510
:10101000FC016150704001900110D8F780959095C7
:101020008E0F9F1F08950F931F93CF93DF938C0113
:10103000EB018B8181FF1BC082FF0DC02E813F81A0
:101040008C819D812817390764F4E881F981019327
:10105000F983E88306C0E885F985802F1995892BE7
:1010600031F48E819F8101969F838E8302C00FEFA2
:101070001FEFC801DF91CF911F910F910895AEE04E
:10108000B0E0E5E4F8E00C945C400E891F89888D9F
:10109000998D97FF02C080E090E801979E838D8331
:1010A0001A83098386E08C839E01245E3F4FCE0124
:1010B00001966A8D7B8DA9010E9483034D815E811B
:1010C00057FD0AC02F813885421753070CF49A0147
:1010D000020F131FF80110822E96E4E00C94784062
:1010E000AEE0B0E0E6E7F8E00C945C400E891F89C2
:1010F00086E08C831A8309838FEF9FE79E838D831D
:101100009E01265E3F4FCE010196688D798DA90123
:101110000E9483032F813885020F131FF80110826C
:101120002E96E4E00C947840AEE0B0E0EAE9F8E016
:101130000C945C408C0177FF02C060E070E8615065
:1011400070407E836D831A83098386E08C83CE0191
:101150000196BA01A9010E9483032D813E8137FDCA
:1011600009C0EF81F8852E173F070CF4F901E00F55
:10117000F11F10822E96E4E00C947840AEE0B0E0CF
:10118000E4ECF8E00C945C408C0177FF02C060E076
:1011900070E8615070407E836D831A8309838EE00E
:1011A0008C83CE010196BA01A9010E9483032D818F
:1011B0003E8137FD09C0EF81F8852E173F070CF4FB
:1011C000F901E00FF11F10822E96E4E00C947840B4
:1011D000FA01AA27283051F1203181F1E8946F9368
:1011E0006E7F6E5F7F4F8F4F9F4FAF4FB1E03ED00E
:1011F000B4E03CD0670F781F891F9A1FA11D680FAC
:10120000791F8A1F911DA11D6A0F711D811D911DDE
:10121000A11D20D009F468943F912AE0269F112453
:101220003019305D3193DEF6CF010895462F4770B7
:10123000405D4193B3E00FD0C9F7F6CF462F4F7012
:10124000405D4A3318F0495D31FD4052419302D070
:10125000A9F7EACFB4E0A695979587957795679516
:10126000BA95C9F700976105710508959B01AC0116
:101270000A2E06945795479537952795BA95C9F73D
:10128000620F731F841F951FA01D0895A2E0B0E098
:10129000ECE4F9E00C945A400E94DE1A9A838983A8
:1012A00000E010E07E010894E11CF11CF801EE0F53
:1012B000FF1FE559FD4F0190F081E02D309709F0B7
:1012C0001995C70160E070E00E942E2FC8010196B9
:1012D00066E070E00E9419408C01E8CF1F93182F40
:1012E00080917702909178026EEF0E941B39809175
:1012F000770290917802612F0E941B391F91089507
:10130000CF93DF93EC016130710511F4405C5F4FC6
:10131000842F80580E946E09809177029091780204
:10132000BE010E94D23DDF91CF910895A2E2B0E0CC
:10133000ECE9F9E00C945A400E94DE1A9A83898302
:1013400081E00E946E0980E092E060E070E040E0A1
:1013500050E00E9480098DB79EB70A970FB6F894A7
:101360009EBF0FBE8DBFEDB7FEB731968E010D5FEC
:101370001F4FADB7BEB712961C930E93119785E021
:1013800090E09383828394E0E92E92E0F92EF58237
:10139000E48280911F0390912003A0912103B091DA
:1013A000220386839783A087B1870E943F088DB769
:1013B0009EB70A960FB6F8949EBF0FBE8DBFC801A8
:1013C00060E070E043E050E00E94800987E092E036
:1013D00060E070E048E050E00E948009ADB7BEB721
:1013E0001A970FB6F894BEBF0FBEADBFEDB7FEB7EC
:1013F000319612961C930E93119786E090E093839A
:101400008283F582E4828091230390912403A0914A
:101410002503B091260386839783A087B1870E9416
:101420003F088DB79EB70A960FB6F8949EBF0FBEC1
:101430008DBFC80160E070E04BE050E00E94800981
:101440008BE092E061E070E040E050E00E948009B3
:1014500000D000D0EDB7FEB73196ADB7BEB712964B
:101460001C930E93119780E1E82E82E0F82EF38210
:10147000E2828091DE15848315820E9470088DB708
:101480009EB706960FB6F8949EBF0FBE8DBFC801DB
:1014900061E070E044E050E00E94800983E192E066
:1014A00061E070E047E050E00E94800900D000D089
:1014B000EDB7FEB73196ADB7BEB712961C930E933B
:1014C0001197F382E2828091DF15848315820E9456
:1014D00070088DB79EB706960FB6F8949EBF0FBEE4
:1014E0008DBFC80161E070E049E050E00E948009D2
:1014F00086E192E061E070E04CE050E00E948009FB
:1015000000D000D0EDB7FEB73196ADB7BEB712969A
:101510001C930E931197F382E2828091E0158483ED
:1015200015820E9470088DB79EB706960FB6F89484
:101530009EBF0FBE8DBFC80161E070E04EE050E07D
:101540000E948009CE01019665E070E00E942E2F76
:10155000A296E6E00C947640A2E0B0E0E2EBFAE07E
:101560000C945E400E94DE1A9A83898381E00E9477
:101570006E0989E192E060E070E040E050E00E9496
:101580008009CE01019664EF71E00E942E2F229611
:10159000E2E00C947A40A2E2B0E0E1EDFAE00C94D3
:1015A00056406C010E94DE1A9A83898381E00E9472
:1015B0006E0900D000D0EDB7FEB731968E010D5FF9
:1015C0001F4FADB7BEB712961C930E93119730E123
:1015D000E32E32E0F32EF382E282D6018C918483F3
:1015E00015820E9470088DB79EB706960FB6F894C4
:1015F0009EBF0FBE8DBF8EE192E060E070E040E0E4
:1016000050E00E948009C80160E070E045E050E0D1
:101610000E94800900D000D0EDB7FEB73196ADB77B
:10162000BEB712961C930E931197F382E282D601F5
:1016300011968C91848315820E9470088DB79EB795
:1016400006960FB6F8949EBF0FBE8DBFC80160E02E
:1016500070E048E050E00E94800924E2A22E22E0DF
:10166000B22EC50160E070E04AE050E00E948009BF
:1016700000D000D0EDB7FEB73196ADB7BEB7129629
:101680001C930E931197F382E282D60112968C91ED
:10169000848315820E9470088DB79EB706960FB698
:1016A000F8949EBF0FBE8DBFC80160E070E04BE0B4
:1016B00050E00E948009C50160E070E04DE050E01C
:1016C0000E94800900D000D0EDB7FEB73196ADB7CB
:1016D000BEB712961C930E931197F382E282D60145
:1016E00013968C91848315820E9470088DB79EB7E3
:1016F00006960FB6F8949EBF0FBE8DBFC80160E07E
:1017000070E04EE050E00E94800900D000D0EDB7BC
:10171000FEB73196ADB7BEB712961C930E931197D4
:10172000F382E282D60114968C91848315820E9402
:1017300070088DB79EB706960FB6F8949EBF0FBE81
:101740008DBFC80161E070E040E050E00E94800978
:10175000C50161E070E042E050E00E94800900D0E5
:1017600000D0EDB7FEB73196ADB7BEB712961C9359
:101770000E931197F382E282D60115968C918483A1
:1017800015820E9470088DB79EB706960FB6F89422
:101790009EBF0FBE8DBFC80161E070E043E050E026
:1017A0000E948009C50161E070E045E050E00E94C0
:1017B000800900D000D0EDB7FEB73196ADB7BEB707
:1017C00012961C930E931197F382E282D60116961D
:1017D0008C91848315820E9470088DB79EB70696FF
:1017E0000FB6F8949EBF0FBE8DBFC80161E070E0D8
:1017F00046E050E00E948009C50161E070E048E0E9
:1018000050E00E94800900D000D0EDB7FEB73196BD
:10181000ADB7BEB712961C930E931197F382E28276
:10182000D60117968C91848315820E9470088DB71B
:101830009EB706960FB6F8949EBF0FBE8DBFC80127
:1018400061E070E049E050E00E948009C50161E07C
:1018500070E04BE050E00E94800900D000D0EDB76E
:10186000FEB73196ADB7BEB712961C930E93119783
:10187000F382E282D60118968C91848315820E94AD
:1018800070088DB79EB706960FB6F8949EBF0FBE30
:101890008DBFC80161E070E04CE050E00E9480091B
:1018A000C50161E070E04EE050E00E948009CE0189
:1018B000019664EF71E00E942E2FA296EAE00C944C
:1018C000724081E090E00E94B90F80E090E00E94B9
:1018D000B90F0895A2E0B0E0E0E7FCE00C945E40B0
:1018E0000E94DE1A9A83898381E090E00E94570F5C
:1018F00081E090E064E372E10E94081080E090E0F3
:101900000E94570F80E090E06CE474E00E940810A1
:10191000CE01019669E170E00E942E2F2296E2E04E
:101920000C947A40A2E0B0E0E8E9FCE00C945E4060
:101930000E94DE1A9A83898381E090E00E94570F0B
:1019400081E090E064E372E10E94081080E090E0A2
:101950000E94570F80E090E064E372E10E9408105B
:10196000CE01019669E170E00E942E2F2296E2E0FE
:101970000C947A40A2E0B0E0E0ECFCE00C945E4015
:101980000E94DE1A9A83898381E090E00E94570FBB
:1019900081E090E06CE474E00E94081080E090E048
:1019A0000E94570F80E090E06CE474E00E94081001
:1019B000CE01019669E170E00E942E2F2296E2E0AE
:1019C0000C947A409F92AF92BF92CF92DF92EF92A7
:1019D000FF920F931F9380E090E064ED75E10E9409
:1019E0003810019709F4A7C00F2EF0E0AF2EF0E0F9
:1019F000BF2EF0E0CF2EF0E0DF2EF02D992493944F
:101A000081E090E068ED75E10E943810019709F4DB
:101A100069C00F2EF0E0EF2EF0E0FF2EF0E00F2F68
:101A2000F0E01F2FF02D60911B0370911C0380913B
:101A30001D0390911E0320911703309118034091CC
:101A4000190350911A030E94333720E030E040E040
:101A50005FE30E94B538609323037093240380935F
:101A6000250390932603992051F0C801B70120E087
:101A700030E040E050E00E949737882331F1C60102
:101A8000B501A80197010E94333720E030E040E023
:101A90005FE30E94B5389B01AC0161E77DE38AE01A
:101AA0009FE30E949B3760931F03709320038093F2
:101AB0002103909322031F910F91FF90EF90DF90ED
:101AC000CF90BF90AF909F90089580E090E0A0E00D
:101AD000B0E080931F0390932003A0932103B09361
:101AE0002203E9CF6091D8157091D9158091DA154C
:101AF0009091DB150E9403382DEB37E346E055E368
:101B00000E94B5387B018C01609117037091180316
:101B10008091190390911A0321E73DE34AE05FE3C6
:101B20000E9433376093170370931803809319034F
:101B300090931A0378CF6091D4157091D515809148
:101B4000D6159091D7150E9403382DEB37E346E068
:101B500055E30E94B5385B016C0160911B037091E5
:101B60001C0380911D0390911E0321E73DE34AE091
:101B70005FE30E94333760931B0370931C038093D1
:101B80001D0390931E039924C601B50120E030E0A7
:101B900040E050E00E949737882309F031CF992424
:101BA00093942ECFA2E0B0E0E8EDFDE00C945E400F
:101BB0000E94DE1A9A8389830E94C81181E090E016
:101BC0000E94570F81E090E06CE474E00E940810DE
:101BD00080E090E00E94570F80E090E064E372E1C3
:101BE0000E940810CE01019662E070E00E942E2F44
:101BF0002296E2E00C947A400E94C81180910B0377
:101C000090910C03009729F181309105D1F1823038
:101C1000910559F18330910509F43FC0049709F407
:101C200048C080910D0390910E034F978CF0109255
:101C30000E0310920D0380910B0390910C030196FB
:101C400065E070E00E94194090930C0380930B03B1
:101C5000089580910D0390910E03019690930E03C9
:101C600080930D030E94D20DDCCF80910D039091E3
:101C70000E03019690930E0380930D030E94BA0CFD
:101C8000D0CF80910D0390910E03019690930E0397
:101C900080930D030E946A0CC4CF80910D03909134
:101CA0000E03019690930E0380930D030E94920CF5
:101CB000B8CF80910D0390910E03019690930E037F
:101CC00080930D030E94610CACCFA2E0B0E0EBE684
:101CD000FEE00C945E400E94DE1A9A83898382E0C3
:101CE00090E00E94570F80910B0390910C03049792
:101CF00009F44BC080910A03882319F1609179029D
:101D000070917A026451704082E090E00E94081065
:101D1000CE01019669E170E00E942E2F8091790238
:101D200090917A02449790937A02809379028D542D
:101D3000944010F410920A032296E2E00C947A4048
:101D40003CC06091790270917A026C5E7F4F82E0B4
:101D500090E00E940810CE01019669E170E00E94B7
:101D60002E2F8091790290917A02449690937A0274
:101D70008093790288569041FCF281E080930A03B7
:101D80002296E2E00C947A4018C082E090E060E590
:101D90007AE00E940810CE01019662E370E00E9492
:101DA0002E2F82E090E00E94231090937A0280937D
:101DB00079022296E2E00C947A406D9A6B9A8091B7
:101DC000010188608093010180910B0390910C03C5
:101DD000009761F08130910589F082309105F1F032
:101DE00083309105D9F0049789F008957398809114
:101DF0000201886080930201759A08958091020122
:101E0000877F80930201759A739A089575988091DF
:101E10000201877F809302017398089575988091DD
:101E20000201886080930201739A0895279A2F9A7D
:101E3000FFCFAF92BF92CF92DF92EF92FF920F93BC
:101E40001F9381E090E040E855E260E070E02FEF02
:101E500030E000E410E00E94353F9093DD15809360
:101E6000DC158FE892E00E94243D86E499E066E26A
:101E700072E040E051E020E030E003E0EE24FF2497
:101E8000CC24DD24AA24BB240E9439310E943E3296
:101E900086E692E00E94243D80E090E01F910F9141
:101EA000FF90EF90DF90CF90BF90AF9008959C018E
:101EB000DC01AA0FBB1FAC01440F551F440F551F77
:101EC000440F551FFD01E40FF51FE752FD4F019030
:101ED000F081E02D808191818C54944085579E4003
:101EE00020F080E59AE091838083F901EE0FFF1FD7
:101EF000EE0FFF1FE20FF31FEE0FFF1FE552FD4F26
:101F00000190F081E02DA40FB51FA752BD4F14968C
:101F10004D915C911597208181E090E016960C9090
:101F2000169702C0880F991F0A94E2F7282B208386
:101F3000FA0120818095822380831896ED91FC918F
:101F400019970084F185E02D20811796AC91A1307E
:101F500069F0A13030F480E89FEB822B89238083E5
:101F60000895A230E9F788E09BEFF7CF80E29FEE7B
:101F7000F4CFCF93DF93FC01EE0FFF1FEE0FFF1F97
:101F8000E80FF91FEE0FFF1FE552FD4F4081518111
:101F9000DC01AA0FBB1FAA0FBB1FAA0FBB1F880F14
:101FA000991FA80FB91FA752BD4F1496ED91FC9130
:101FB0001597EA01288181E090E016960C9016971B
:101FC00002C0880F991F0A94E2F7282B28832081EA
:101FD0008095822380831896ED91FC911997008457
:101FE000F185E02D908117968C91813069F08130D8
:101FF00030F48FE389238083DF91CF91089582307D
:1020000029F0DF91CF9108958FECF4CF83EFF2CFD9
:102010009C01CB018C54944085579E4098F4C90193
:10202000F901EE0FFF1FEE0FFF1FEE0FFF1F880FCE
:10203000991FE80FF91FE752FD4F0190F081E02D45
:102040007183608308959C01FC01EE0FFF1FEE0F6A
:10205000FF1FEE0FFF1F220F331FE20FF31FE75288
:10206000FD4F0190F081E02D20813181C90108955B
:10207000CF93DF93DC01EB01F894FC01EE0FFF1F1F
:10208000E55CFC4F80819181019739F020E030E0E0
:102090007894C901DF91CF910895AA0FBB1FAA0FB1
:1020A000BB1FAD5CBC4F8D919D910D90BC91A02D3F
:1020B00088839983AA83BB831182108221E030E058
:1020C0007894C901DF91CF9108951F920F920FB6B6
:1020D0000F9211248F939F93AF93BF938091270307
:1020E00090912803A0912903B0912A030196A11D84
:1020F000B11D8093270390932803A0932903B093E5
:102100002A03BF91AF919F918F910F900FBE0F90B7
:102110001F9018951F920F920FB60F9211248F9354
:102120009F93AF93BF9380912B0390912C03A09129
:102130002D03B0912E030196A11DB11D80932B0399
:1021400090932C03A0932D03B0932E03BF91AF91D6
:102150009F918F910F900FBE0F901F9018951F9217
:102160000F920FB60F920BB60F921124EF92FF92BF
:102170000F931F932F933F934F935F936F937F938F
:102180008F939F93AF93BF93CF93DF93EF93FF937F
:10219000E091B902F091BA02808180628083E0917F
:1021A000BF02F091C002C081D181209127033091FC
:1021B00028034091290350912A031092270310927B
:1021C00028031092290310922A0321153105410595
:1021D000510509F444C080912F03909130037E0192
:1021E00000E010E0A0E0B0E0E81AF90A0A0B1B0BCF
:1021F000CA01B9012FE33CE940E050E00E94FA3FF8
:10220000E60EF71E081F191FE0923303F092340305
:10221000009335031093360381E090E090933C03E4
:1022200080933B03D0933003C0932F03FF91EF9132
:10223000DF91CF91BF91AF919F918F917F916F91DE
:102240005F914F913F912F911F910F91FF90EF90D0
:102250000F900BBE0F900FBE0F901F90189580919E
:102260002F03909130039E01281B390B790100E068
:1022700010E0CACF1F920F920FB60F920BB60F92BB
:102280001124EF92FF920F931F932F933F934F933D
:102290005F936F937F938F939F93AF93BF93CF93EE
:1022A000DF93EF93FF93A091B702B091B802ED9145
:1022B000FC9111978081806280831696ED91FC914C
:1022C0001797C081D18120912B0330912C0340912D
:1022D0002D0350912E0310922B0310922C03109279
:1022E0002D0310922E03211531054105510509F4E6
:1022F00044C080913103909132037E0100E010E0F0
:10230000A0E0B0E0E81AF90A0A0B1B0BCA01B901F8
:102310002FE33CE940E050E00E94FA3FE60EF71E52
:10232000081F191FE0923703F09238030093390316
:1023300010933A0381E090E090933E0380933D0335
:10234000D0933203C0933103FF91EF91DF91CF918E
:10235000BF91AF919F918F917F916F915F914F91BD
:102360003F912F911F910F91FF90EF900F900BBE17
:102370000F900FBE0F901F90189580913103909190
:1023800032039E01281B390B790100E010E0CACF0F
:102390008091A0008F738093A0008091A0008F7C1B
:1023A0008093A0008091A000837F8093A000809103
:1023B000A0009091A100836098618093A000909309
:1023C000A1008091A10082608A7F8093A1002EE30A
:1023D0003CE93093A9002093A800809120018F73DD
:1023E00080932001809120018F7C80932001809137
:1023F0002001837F80932001809120019091210111
:102400008360986180932001909321018091210144
:1024100082608A7F809321013093290120932801D3
:102420001092300310922F0310922703109228036A
:102430001092290310922A0380910A018E7F8093C3
:102440000A0180910B018E7F80930B01E091BB020A
:10245000F091BC0280818062808380818160808372
:10246000E091C302F091C402808180648083109265
:1024700032031092310310922B0310922C0310920E
:102480002D0310922E0380910A018D7F80930A0103
:1024900080910B018D7F80930B01A091B702B091C9
:1024A000B8021296ED91FC9113978081806280832F
:1024B0001296ED91FC9113978081816080831A962A
:1024C000ED91FC911B978081806480830895A6E242
:1024D000B0E0EDE6F2E10C94564063E0A62EB12C9C
:1024E000AC0EBD1ED501E7EFF2E082E101900D9246
:1024F0008150E1F781ED898384EA8A8300E010E06E
:102500006E010894C11CD11C55E1E52EF12CEC0E96
:10251000FD1E84EB0E947D14C501800F911F62E0B7
:102520000E942913C60162E00E942913C701800F8F
:10253000911F62E00E9474130E5F1F4F023111055C
:1025400041F78E898093E115FE017896A2EEB5E100
:1025500020E030E0AE01485D5F4F8081280F311DE3
:102560008D933296E417F507C1F735952795359584
:1025700027953595279520937B028091E1158093CF
:10258000DE152091E2158091E31590E0820F911DF8
:102590002091E415820F911D2091E515820F911D68
:1025A00095958795959587958093DF152091E715EB
:1025B0008091E61590E0820F911D2091E815820F21
:1025C000911D2091E915820F911D959587959595FF
:1025D00087958093E015A696EAE00C94724080916E
:1025E000BC0080FDFCCF1092410388EF80937C02F9
:1025F00085EC8093BC0008958091BC0080FDFCCFE9
:102600001092410388EF80937C0285EE8093BC009A
:102610000895AC018091BC0080FDFCCF60935C0309
:10262000662371F020E030E0F901EC5BFC4FDA0149
:10263000A20FB31F8C9180832F5F3F4F2617A0F30B
:102640001092410388EF80937C0285EC8093BC005C
:102650000895FC018091BC0080FDFCCF60935C0379
:10266000808180934403808180FD11C0623078F0C6
:10267000DF01E5E4F3E0625070E06A5B7C4F1196A5
:102680008C91119781931196E617F707C1F7109275
:10269000410388EF80937C0285EA8093BC00089513
:1026A000AC018091BC0080FDFCCF2091410320FF54
:1026B00019C0662381F020E030E0FA01E20FF31F39
:1026C000D901AC5BBC4F8C9180832F5F3F4F2617A5
:1026D000A0F320914103822F8D7F80934103822FAD
:1026E0008170089580E00895AC018091BC0080FD68
:1026F000FCCF80914103282F217080FF13C06623F7
:1027000089F020E030E0FA01E20FF31FD901AC5B61
:10271000BC4F8C9180832F5F3F4F2617A0F32091F1
:1027200041032170822F089580914203882319F07C
:1027300089B189B1FDCF81E008958091BC0080FD11
:10274000FCCF80917C0208951F920F920FB60F92DA
:102750000BB60F9211242F933F938F939F93AF93B8
:10276000BF93EF93FF938091B90090E0FC013897FD
:10277000E13CF105B0F08091B90080937C0285EDD9
:102780008093BC00FF91EF91BF91AF919F918F918A
:102790003F912F910F900BBE0F900FBE0F901F9087
:1027A0001895EE58FF4F0C9485408091430390910B
:1027B000BB00E82FF0E0EC5BFC4F90838F5F8093D1
:1027C00043038091410381608093410385EC8093B2
:1027D000BC00D8CF209143038091BB00E22FF0E0F2
:1027E000EC5BFC4F80832F5F2093430330E08091AC
:1027F0005C0390E001972817390744F385E880933C
:10280000BC00C0CF109243039091430380915C03BE
:10281000981708F05DC0E92FF0E0EC5BFC4F808179
:102820008093BB009F5F9093430385E88093BC0037
:10283000A9CF1092430390914303E92FF0E0EC5BA2
:10284000FC4F80818093BB009F5F9093430385EC96
:102850008093BC0097CF8091BB00E0914303F0E0F0
:10286000EC5BFC4F80838091410381608093410346
:1028700084ED8093BC0086CF8091B90080937C0268
:1028800085EE8093BC007ECF85EE8093BC007ACF2E
:1028900084E0809342038093BC0074CF9091430303
:1028A00080915C03981719F18091B90080937C02A4
:1028B00084E08093BC0066CF809141038460826095
:1028C000809341031092430385EC8093BC005ACF60
:1028D0008091410381608093410384E98093BC002F
:1028E00051CF80914103EBCF209143037FCF809163
:1028F0004103816080934103DBCF1F93182F8091A8
:102900003F0390914003892BA9F08AB18C7F8AB94B
:102910008BB183608BB91092B9008CE28093B800C0
:102920001093BA008FEF8093BB0084E08093BC00CB
:102930001F91089581E060E043E00E946A1A90933D
:10294000400380933F03009701F360E070E040E0B4
:1029500050E020E00E94D717D8CF1F93182F809106
:102960003F0390914003892B69F08AB18C7F8AB92B
:102970001093BA008FEF8093BB0084E08093BC007B
:102980001F91089581E060E043E00E946A1A9093ED
:10299000400380933F03009741F360E070E040E024
:1029A00050E020E00E94D717E0CF0FB6F8940F92C6
:1029B000FC01828D0F900FBE0895FC010FB6F894B4
:1029C0000F92928D0F900FBE838D891B0895FC018D
:1029D000828D0895FC01878D0895FC01678F08950D
:1029E000FC0180A10895FC01828D90E0882309F408
:1029F00091E0892F0895FC01928D20E0838D981736
:102A000011F0822F089521E0822F0895CF93DF9354
:102A1000EC0188819981009711F00E942535CE0143
:102A20000E942535DF91CF9108950F931F93CF9387
:102A3000DF93562FE72FEC018A8D8823F1F00E816A
:102A40001F816881798161157105A1F04C8D980114
:102A5000240F311D3F832E838A819B8128173907DC
:102A600010F07F836E836E817F81852F9E2F50E0D3
:102A70000E94F8071F830E8381E0DF91CF911F91A1
:102A80000F9108950F931F93CF93DF93FB018A015A
:102A9000EC018A8D882319F16881798161157105AE
:102AA000A1F04C8D8E819F81840F911D9F838E8319
:102AB0002A813B818217930710F07F836E836E819A
:102AC0007F81CF0150E00E94F8078A8D81508A8F64
:102AD0008D8D8F3F49F08D8D8F5F8D8F81E0DF91E0
:102AE000CF911F910F9108958885882331F481E05B
:102AF000DF91CF911F910F910895CE0108960E940A
:102B0000F21C8823A1F30115110589F381E0F80176
:102B10008083E5CFA5E0B0E0E0E9F5E10C9450401A
:102B2000562E472E5D834C83A22E8C0128E0C22EA8
:102B3000D12CC80ED91E91E1E92EF12CE00EF11E28
:102B400020E04E010894811C911C84E0682E712CB9
:102B50006C0E7D1EBB24BA940FB6F8940F92F80148
:102B6000828D882309F0ECC08C819D81892B09F42A
:102B70001CC1222309F4D5C00F900FBE0E94D81AA1
:102B80000FB6F8940F92F801858D8F3F09F4C7C0F6
:102B9000F801868D8F3F09F4C0C00F900FBEC401AD
:102BA000B3010E94FD1A882309F007C10FB6F894FB
:102BB0000F92F801828D0F900FBE882309F05FC03D
:102BC000F80180819181892B09F4AFC06C817D81EE
:102BD000C7010E94DC1E0FB6F8940F92F801868D93
:102BE00018164CF019C0F801868D8150868F868D9D
:102BF000181694F4F8018189882371F0C7010E94A6
:102C0000F21C882381F30E943C1BF801868D8150C1
:102C1000868F868D181674F3F801B68E0F900FBE4E
:102C20000FB6F8940F92F801858D18164CF019C064
:102C3000F801858D8150858F858D181694F4F801E3
:102C40008085882371F0C6010E94F21C882381F3DD
:102C50000E943C1BF801858D8150858F858D18164B
:102C600074F3F801B58E0F900FBE0E94F21F8823F7
:102C700011F021E071CF0E94B93421E06DCF0FB681
:102C8000F8940F92F801868D18164CF019C0F801CF
:102C9000868D8150868F868D181694F4F80181896F
:102CA000882371F0C7010E94F21C882381F30E94DF
:102CB0003C1BF801868D8150868F868D181674F323
:102CC000F801B68E0F900FBE0FB6F8940F92F80170
:102CD000858D18164CF019C0F801858D8150858FAF
:102CE000858D181694F4F8018085882371F0C6014B
:102CF0000E94F21C882381F30E943C1BF801858D01
:102D00008150858F858D181674F3F801B58E0F905C
:102D10000FBE0E94F21F21E01FCF168E3ECF158EF0
:102D200037CFC4010E94F21A27CF0FB6F8940F9242
:102D3000F801828193810E946A1C0F900FBE46CFDA
:102D4000868097806081718161157105A1F0448D45
:102D50009401240F311D37832683828193812817A4
:102D6000390708F08CC0F80166817781852D942D94
:102D700050E00E94F807AA2009F073C0F801828D84
:102D80008150828F80819181892B09F481C0F80163
:102D90008085882309F46BC0C6010E94F21C813033
:102DA00009F065C00E94B93462C00F900FBE80E088
:102DB0002596E0E10C946C4071C00FB6F8940F9228
:102DC000F801868D18164CF019C0F801868D8150D7
:102DD000868F868D181694F4F8018189882371F006
:102DE000C7010E94F21C882381F30E943C1BF8015A
:102DF000868D8150868F868D181674F38FEFF801BB
:102E0000868F0F900FBE0FB6F8940F92F801858D44
:102E100018164CF019C0F801858D8150858F858D6D
:102E2000181694F4F8018085882371F0C6010E9479
:102E3000F21C882381F30E943C1BF801858D815090
:102E4000858F858D181674F38FEFF801858F0F909D
:102E50000FBE0E94F21F80E02596E0E10C946C40CA
:102E60001DC0F801978286828189882359F40F90CA
:102E70000FBE81E02596E0E10C946C400FC0778393
:102E8000668371CFC7010E94F21C882381F38ACF29
:102E90000E941A1CF8019383828379CFEF92FF92EC
:102EA0001F93CF93DF937A01122FEC019A8D8B8DB4
:102EB000981748F0223039F080E0DF91CF911F91D0
:102EC000FF90EF9008954C8D4423A9F48881998157
:102ED000892B09F465C08A8D8F5F8A8F8E8D8F3F15
:102EE00089F18E8D8F5F8E8F81E0DF91CF911F9161
:102EF000FF90EF900895112379F18E819F8150E02A
:102F00000E94F8078C8D90E044275527481B590BE9
:102F10008E819F81840F951F9F838E8328813981A5
:102F20008217930730F48A819B81840F951F9F83BA
:102F30008E83123081F68A8D882369F28A8D8150C2
:102F40008A8FC9CF89898823F1F481E0DF91CF91FD
:102F50001F91FF90EF9008958C819D8150E00E9419
:102F6000F8078C8D2C813D81280F311D3D832C83EA
:102F70008A819B812817390708F4ADCF8881998110
:102F80009D838C83A8CFCE0141960E94F21C88239A
:102F9000E1F2E114F104C9F281E0F7018083A5CFE9
:102FA0008A819B810E94381C1B821A8294CFA5E0E3
:102FB000B0E0EDEDF7E10C945040562E472E5D83C6
:102FC0004C83B22E8C0158E0E52EF12CE80EF91E50
:102FD00041E1C42ED12CC80ED91E20E04E01089428
:102FE000811C911C34E0632E712C6C0E7D1EAA2472
:102FF000AA940FB6F8940F92F801928D838D9817CA
:1030000008F4E0C0F2E0BF1609F4DCC08C819D81B9
:10301000892B09F41EC1222309F478C00F900FBE3A
:103020000E94D81A0FB6F8940F92F801858D8F3F41
:1030300009F46AC0F801868D8F3F09F463C00F90D0
:103040000FBEC401B3010E94FD1A882309F009C113
:103050000FB6F8940F92F801928D0F900FBEF80101
:10306000838D981709F456C00FB6F8940F92F801A3
:10307000868D18164CF019C0F801868D8150868F08
:10308000868D181694F4F8018189882371F0C601A1
:103090000E94F21C882381F30E943C1BF801868D5C
:1030A0008150868F868D181674F3F801A68E0F90C6
:1030B0000FBE0FB6F8940F92F801858D18164CF0DC
:1030C00019C0F801858D8150858F858D181694F46F
:1030D000F8018085882371F0C7010E94F21C8823C3
:1030E00081F30E943C1BF801858D8150858F858D71
:1030F000181674F3F801A58E0F900FBE0E94F21FF0
:1031000021E077CF168E9BCF158E94CFC4010E94FD
:10311000F21A84CF6C817D81C7010E94DC1E0FB63C
:10312000F8940F92F801868D18164CF019C0F8012A
:10313000868D8150868F868D181694F4F8018189CA
:10314000882371F0C6010E94F21C882381F30E943B
:103150003C1BF801868D8150868F868D181674F37E
:10316000F801A68E0F900FBE0FB6F8940F92F801DB
:10317000858D18164CF019C0F801858D8150858F0A
:10318000858D181694F4F8018085882371F0C701A5
:103190000E94F21C882381F30E943C1BF801858D5C
:1031A0008150858F858D181674F3F801A58E0F90C8
:1031B0000FBE0E94F21F882309F0A2CF0E94B934EB
:1031C00021E017CFF801448D4423A9F48081918137
:1031D000892B09F4BEC0F801828D8F5F828F8189AF
:1031E000882309F0ADC00F900FBE81E02596E0E185
:1031F0000C946C40B6C0BB2009F487C0F8018681EE
:103200009781652D742D50E00E94F807F801848D98
:1032100090E044275527481B590B86819781840FDE
:10322000951F97838683208131818217930730F41D
:1032300082819381840F951F97838683F2E0BF1666
:1032400051F6F801828D882331F2828D8150828F70
:10325000C2CF0F900FBE80E02596E0E10C946C4049
:1032600080C00FB6F8940F92F801868D18164CF0B6
:1032700019C0F801868D8150868F868D181694F4BA
:10328000F8018189882371F0C6010E94F21C88230D
:1032900081F30E943C1BF801868D8150868F868DBC
:1032A000181674F38FEFF801868F0F900FBE0FB6CC
:1032B000F8940F92F801858D18164CF019C0F8019A
:1032C000858D8150858F858D181694F4F801808541
:1032D000882371F0C7010E94F21C882381F30E94A9
:1032E0003C1BF801858D8150858F858D181674F3F0
:1032F0008FEFF801858F0F900FBE0E94F21F80E0C4
:103300002596E0E10C946C402CC0F80184819581F5
:10331000652D742D50E00E94F807F801848D2481FA
:103320003581280F311D35832483828193812817AD
:10333000390708F450CF80819181958384834BCFE6
:10334000C6010E94F21C813009F04DCF0E94B934B1
:103350004ACF828193810E94381CF8011382128225
:103360003ACF0F931F93CF93DF93182F81E290E012
:103370000E949835EC01009719F11B821A8219827C
:1033800018821D821C821F821E821A8E81E08B8F02
:103390001C8E8FEF8D8F8E8F18A3CE0108960E9402
:1033A00096368E010F5E1F4FC8010E9496360FB6EB
:1033B000F8940F929A8D8B8D981740F00F900FBE56
:1033C000CE01DF91CF911F910F9108954C8D442331
:1033D00091F488819981892B71F18A8D8F5F8A8F11
:1033E0008989882301F50F900FBECE01DF91CF911F
:1033F0001F910F9108958C819D8160E070E050E0F5
:103400000E94F8078C8D2C813D81280F311D3D8352
:103410002C838A819B8128173907F8F2888199814A
:103420009D838C83DACFC8010E94F21C8130D9F6CB
:103430000E94B934D8CF8A819B810E94381C1B829C
:103440001A82CBCFCF93DF93EC010FB6F8940F9293
:10345000EC8D2B8DE29FC001112448815981840F8E
:10346000951F9B838A831A8E5D834C8330E02150A5
:103470003040F0E02E9FC0012F9F900D3E9F900D99
:103480001124480F591F5F834E838FEF8D8F8E8FCE
:10349000662391F48885882331F40F900FBE81E074
:1034A000DF91CF910895CE0108960E94F21C8130E1
:1034B000A1F70E94B934F1CFCE0108960E9496364A
:1034C000CE0141960E9496360F900FBE81E0DF91AB
:1034D000CF910895CF92DF92FF920F931F93CF93D6
:1034E000DF93182F062FF42E882359F440E050E084
:1034F000CA01DF91CF911F910F91FF90DF90CF9084
:10350000089581E290E00E949835EC01009771F3F4
:10351000C02EDD24812F90E09C01C29EC001C39E7D
:10352000900DD29E900D112401960E94983599839A
:1035300088830097B9F11B8F0C8F0FB6F8940F9208
:103540002B8D30E0C29EC001C39E900DD29E900D87
:10355000112448815981840F951F9B838A831A8E79
:103560005D834C83215030408C8D90E0BC01269FC0
:10357000C001279F900D369F900D1124480F591FB1
:103580005F834E838FEF8D8F8E8FCE0108960E94C2
:103590009636CE0141960E9496360F900FBEF8A245
:1035A000AE01A6CFCE010E94253540E050E0A0CF6D
:1035B000809165038F5F8093650308950FB6F8943B
:1035C0000F9220916203309163030F900FBEC901E7
:1035D00008952091620330916303C9010895809199
:1035E0005F030895FC0180916403808380916203EE
:1035F00090916303928381830895FC01DB010FB6F0
:10360000F8940F9260916203709163032D913C9145
:1036100011978FEF2F3F3807F9F090916403808165
:103620008917F1F0418152816417750708F5CB01C4
:10363000841B950B82179307D8F4261B370B240F96
:10364000351F2D933C9380916403808380916203A6
:10365000909163039283818380E00F900FBE089561
:1036600041815281CB01841B950B8217930728F36C
:1036700081E00F900FBE089581E08093610308956B
:10368000FC01009711F082A1089580E00895FC01EB
:10369000009709F062A30895A0E0B0E0E2E5FBE145
:1036A0000C9450403C018B015A01DB018C91882322
:1036B00009F48DC01196ED91FC9112970280F3816F
:1036C000E02D1296FC93EE93119723E0C22ED12C9D
:1036D000C60ED71EEC15FD0509F483C086809780C1
:1036E000FF249FE0E92E82E0482E512C82819381B5
:1036F000F80192838183C816D90609F455C0D80110
:103700001196ED91FC911297C681D781FE9CB00174
:103710001124660D771DFB01D183C0836996D38385
:10372000C283699789A18483B682A5828E898783A3
:10373000F3E0AF16B10409F43FC08BA1FB01808711
:103740008CA19DA1AEA1BFA181879287A387B487D9
:10375000AF89B88D8C91853A09F040C020E030E007
:1037600040E050E02F5F3F4F4F4F5F4FFD01E20FB2
:10377000F31F8081853AB1F3C901DB011E969C934A
:103780008E931D97F394C815D90511F1D8011196A0
:10379000ED91FC91129782819381F801928381834C
:1037A000C816D90609F0ABCFD60112968D919C911F
:1037B000139792838183A3CF8C899D89892B09F4E8
:1037C000BCCFDB0116965C924E921597B6CFFF24C4
:1037D0008F2DCDB7DEB7E0E10C946C4080E090E037
:1037E000CCCF8281938111968C93119712969C93E2
:1037F0009C01F90173CF0097B1F0FC01A789B08D4E
:103800008C91853AA9F420E030E040E050E02F5F51
:103810003F4F4F4F5F4FFD01E20FF31F8081853A0D
:10382000B1F3822F0895E0915D03F0915E03E6CF3E
:1038300080E0089520915D0330915E03C9010895F1
:10384000E0915D03F0915E0384859585A0915D0311
:10385000B0915E03E0915D03F0915E03468924E040
:1038600030E0241B31091D963C932E931C9708953C
:103870000F931F93CF93DF93EC01009731F19E8953
:103880008BA1981711F18E010E5F1F4FC8010E9486
:10389000FB362BA12E8B8C859D8597FD06C084E081
:1038A00090E0821B91099D878C879E89809160039F
:1038B000891710F49093600389E0989FC001112448
:1038C0008E589C4FB8010E94AA36DF91CF911F916C
:1038D0000F9108950F931F93CF93DF93EC010097FF
:1038E00041F13E89E0915D03F0915E0386893817CE
:1038F00000F58C859D8597FD0BC0E0915D03F091EF
:103900005E03268984E090E0821B91099D878C8765
:1039100089E0389FC00111248E589C4F2A853B8531
:103920002817390759F0E0915D03F0915E0386890D
:103930008E8BDF91CF911F910F9108958E010E5FB5
:103940001F4FC8010E94FB36E0915D03F0915E03BA
:1039500096899E8B80916003891710F49093600381
:1039600089E0989FC00111248E589C4FB8010E9495
:10397000AA36DFCF0F931F93CF93DF93FC017068BC
:1039800071836083C681D7810E94FB368E010E5FF2
:103990001F4FC8010E94FB369E89809160038917E2
:1039A00010F49093600389E0989FC00111248E5811
:1039B0009C4FB8010E94AA36E0915D03F0915E032E
:1039C0009E898689891740F481E080936103DF91A5
:1039D000CF911F910F91089580E0DF91CF911F91BA
:1039E0000F9108950F931F93CF93DF93DC011596EA
:1039F000ED91FC91169706811781E8012C96CE0176
:103A00000E94FB3680916503882331F5E8012296F8
:103A1000CE010E94FB36F8019689809160038917D8
:103A200008F189E0989FC00111248E589C4FBE0177
:103A30000E94AA36E0915D03F0915E03D80156968C
:103A40009C918689891788F481E080936103DF91D6
:103A5000CF911F910F9108958CEA93E0BE010E94CF
:103A6000AA36E8CF90936003DCCF80E0DF91CF915E
:103A70001F910F910895A0E0B0E0E1E4FDE10C9406
:103A8000584080916503882309F089C080916203C2
:103A90009091630301969093630380936203E09097
:103AA0006203F0906303E114F10419F52091A80377
:103AB0003091A9038091AA039091AB039093A9033D
:103AC0008093A8033093AB032093AA0380916403EF
:103AD0008F5F80936403E091A803F091A903808134
:103AE000882309F086C08FEF9FEF90937E0280932A
:103AF0007D0280917D0290917E02E816F90608F41D
:103B000060C0DD2449E0C42EE091A803F091A90330
:103B100080818823E9F1E091A803F091A903058051
:103B2000F681E02DC681D7818A819B81E816F9064E
:103B300008F477C08E010E5F1F4FC8010E94FB364C
:103B40008C899D89892B21F0CE010C960E94FB3631
:103B50009E8980916003891710F4909360039C9D67
:103B6000C00111248E589C4FB8010E94AA36E091E2
:103B70005D03F0915E039E898689981728F2DD2403
:103B8000D394E091A803F091A9038081882319F6CA
:103B90008FEF9FEF90937E0280937D0213C0809100
:103BA0006E038F5F80936E03DD2480916103882311
:103BB00011F0DD24D3948D2DCDB7DEB7E8E00C9461
:103BC0007440DD24E0915D03F0915E03868990E00E
:103BD000FC01EE0FFF1FEE0FFF1FEE0FFF1FE80FA0
:103BE000F91FEE58FC4F80818230F8F2DD24D39427
:103BF000DCCFE091A803F091A9030580F681E02DC8
:103C00000680F781E02D8281938190937E028093DC
:103C10007D0280917D0290917E02E816F90688F27D
:103C200070CF90937E0280937D02CCCFDF92EF9293
:103C3000FF920F931F93CF93DF93EC018A859B85AF
:103C40008E5B934041F010E0812FCDB7DEB7E7E007
:103C50000C94754042C08C899D8923E08C3A920770
:103C600091F3892B81F780916503882349F5DE88DC
:103C7000E0915D03F0915E03068952E0E52EF12CA0
:103C8000EC0EFD1EC7010E94FB366E898091600319
:103C9000861710F46093600310E0D01608F011E06E
:103CA00089E0689FC00111248E589C4FB7010E9483
:103CB000AA36812FCDB7DEB7E7E00C9475400DC072
:103CC0002C968CEA93E0BE010E94AA3610E0812F68
:103CD000CDB7DEB7E7E00C9475400F931F93CF93F9
:103CE000DF938A01E0915D03F0915E037068758750
:103CF000648760915D0370915E03645F7F4F0E94F3
:103D0000AA3680915D0390915E0302960E94FB3675
:103D10008FEF0F3F180709F440C0C0916203D091A4
:103D20006303C00FD11FE0915D03F0915E03D38365
:103D3000C2838091620390916303C817D907E0F0B2
:103D40008091A8039091A90360915D0370915E0337
:103D50006E5F7F4F0E94C93680917D0290917E02F6
:103D6000C817D90720F4D0937E02C0937D02DF915B
:103D7000CF911F910F9108958091AA039091AB0369
:103D800060915D0370915E036E5F7F4F0E94C93644
:103D9000DF91CF911F910F91089560915D03709114
:103DA0005E036E5F7F4F8EEB93E00E94AA36DF9139
:103DB000CF911F910F9108950F931F93CF93DF938E
:103DC0008B0160915D0370915E03645F7F4F0E9481
:103DD000C93680915D0390915E0302960E94FB3686
:103DE0008FEF0F3F180709F440C0C0916203D091D4
:103DF0006303C00FD11FE0915D03F0915E03D38395
:103E0000C2838091620390916303C817D907E0F0E1
:103E10008091A8039091A90360915D0370915E0366
:103E20006E5F7F4F0E94C93680917D0290917E0225
:103E3000C817D90720F4D0937E02C0937D02DF918A
:103E4000CF911F910F9108958091AA039091AB0398
:103E500060915D0370915E036E5F7F4F0E94C93673
:103E6000DF91CF911F910F91089560915D03709143
:103E70005E036E5F7F4F8EEB93E00E94AA36DF9168
:103E8000CF911F910F910895EF92FF920F931F937F
:103E900080916503882309F093C01092610380919B
:103EA0008400909185007C0100E010E0E0926603C0
:103EB000F0926703009368031093690380916A038B
:103EC00090916B03A0916C03B0916D038E159F05CB
:103ED000A007B107B0F4E0915D03F0915E03A80183
:103EE0009701281B390B4A0B5B0B84A195A1A6A156
:103EF000B7A1820F931FA41FB51F84A395A3A6A3E8
:103F0000B7A3E0926A03F0926B0300936C031093E3
:103F10006D03E0915D03F0915E03A0915D03B091AC
:103F20005E032081318157968D919C91589782171D
:103F3000930790F080915D0390915E0360915D0323
:103F400070915E03675E7F4F0E94160F05C08091DF
:103F500060038150809360038091600390E0FC01D6
:103F6000EE0FFF1FEE0FFF1FEE0FFF1FE80FF91FF1
:103F7000EE58FC4F8081882351F39091600389E0D3
:103F8000989FD0011124AE58BC4F1196ED91FC9131
:103F900012970280F381E02D1296FC93EE93119715
:103FA000CD010396E817F90799F0868197819093E0
:103FB0005E0380935D031F910F91FF90EF90089532
:103FC00081E0809361031F910F91FF90EF9008951E
:103FD0008281938111968C93119712969C939C01E8
:103FE000F901E3CFA0E0B0E0E8EFFFE10C94554029
:103FF0000FB6F8940F92809165038150809365030A
:1040000080916503882309F0EDC080915F038823C8
:1040100009F4E8C0F9E0FF2EEE24E3948091AC03AC
:10402000882369F1E091B103F091B203C681D78191
:10403000CE010C960E94FB368E010E5F1F4FC80109
:104040000E94FB369E8980916003891710F490933B
:1040500060039F9DC00111248E589C4FB8010E949F
:10406000AA36E0915D03F0915E039E8986899817D8
:10407000A8F2E09261038091AC03882399F68091C5
:104080006E03882309F4AAC080916E03882309F483
:10409000A5C0E9E0CE2EAA24AA94BA2C9924939420
:1040A00080916503882309F083C080916203909119
:1040B000630301969093630380936203E09062032D
:1040C000F0906303E114F10409F52091A803309105
:1040D000A9038091AA039091AB039093A9038093C5
:1040E000A8033093AB032093AA03809164038F5FEE
:1040F00080936403E091A803F091A9038081882351
:1041000009F097C0B0927E02A0927D0280917D025C
:1041100090917E02E816F90608F473C0DD24E09160
:10412000A803F091A90380818823E9F1E091A80315
:10413000F091A9030580F681E02DC681D7818A819F
:104140009B81E816F90608F485C08E010E5F1F4FAB
:10415000C8010E94FB368C899D89892B21F0CE01F4
:104160000C960E94FB369E8980916003891710F49B
:10417000909360039C9DC00111248E589C4FB80100
:104180000E94AA36E0915D03F0915E039E898689C4
:10419000981728F2DD24D394E091A803F091A903A5
:1041A0008081882319F6B0927E02A0927D022AC0F7
:1041B00080916E038F5F80936E03DD248091610395
:1041C0008823E1F4DD20D1F480916E038150809347
:1041D0006E0380916E03882309F062CF80916103A2
:1041E000813041F080E00F900FBECDB7DEB7EBE03D
:1041F0000C9471400E94B93481E0F5CF9092610334
:10420000E3CFDD24E0915D03F0915E03868990E0C9
:10421000FC01EE0FFF1FEE0FFF1FEE0FFF1FE80F59
:10422000F91FEE58FC4F8081823040F2DD24D39498
:10423000C5CFE091A803F091A9030580F681E02D98
:104240000680F781E02D8281938190937E02809396
:104250007D025CCF90937E0280937D02D3CFA4E059
:10426000B0E0E5E3F1E20C944E401C01DC011C924D
:1042700080915F03898390915F038FE0989FC001D5
:1042800011240E9498352C01009709F4ADC0898152
:10429000909165039F5F9093650390915F038917E9
:1042A00008F4A6C084E0C82E1C82CA94BC81EFE04A
:1042B000BE9F50011124A40CB51CF9E0CF9E7001E3
:1042C000112442E753E0E40EF51ED7018C918823B8
:1042D00009F484C11196ED91FC9112970280F3814B
:1042E000E02D1296FC93EE93119703E0802E912C13
:1042F0008E0C9F1CE815F90509F42CC566807780A3
:10430000DD2482819381F701928381838816990647
:1043100009F45FC0D7011196ED91FC911297668167
:104320007781BFE0DB9E800111240A0D1B1DF8017F
:1043300071836083675E7F4F7383628369517040CE
:10434000DB0191968C919197848341E050E05683F4
:10435000458356968C915697878393968C91939725
:10436000808794968D919D910D90BC91A02D818711
:104370009287A387B487FB01A789B08D8C91853A7A
:1043800009F0D4C220E030E040E050E02F5F3F4F22
:104390004F4F5F4FFD01E20FF31F8081853AB1F36C
:1043A000C901D8011E969C938E931D97D3946616CF
:1043B000770609F414C1D7011196ED91FC9112977B
:1043C00082819381F701928381838816990609F08F
:1043D000A1CFD40112968D919C91139792838183E2
:1043E00099CFC2010E9425352496E2E10C946A40DF
:1043F0001B820FB6F8940F928091650381508093D1
:10440000650380916503882309F0A4C180915F034F
:10441000882309F49FC199E0D92ECC24C3948091BC
:10442000AC03882399F1E091B103F091B2030681C6
:104430001781C8010C960E94FB3622E0E22EF12C77
:10444000E00EF11EC7010E94FB36F80196898091AB
:104450006003891718F49093600396899D9DC001AD
:1044600011248E589C4FB7010E94AA36E0915D033B
:10447000F0915E03D80156969C918689981778F240
:10448000C09261038091AC03882369F680916E032A
:10449000882309F459C180916E03882309F454C11B
:1044A00089E0A82E80916503882309F035C18091A9
:1044B0006203909163030196909363038093620378
:1044C000C0906203D0906303C114D10419F5209108
:1044D000A8033091A9038091AA039091AB03909314
:1044E000A9038093A8033093AB032093AA03809180
:1044F00064038F5F80936403E091A803F091A903A4
:104500008081882309F004C4EFEFFFEFF0937E026F
:10451000E0937D0280917D0290917E02C816D906BB
:1045200008F4DDC3BB24E091A803F091A9038081C6
:10453000882309F44CC0E091A803F091A9030580F9
:10454000F681E02D06811781D80112968D919C91FC
:104550001397C816D90608F4F5C3B2E0EB2EF12C78
:10456000E00EF11EC7010E94FB36F801848995898F
:10457000892B21F0C8010C960E94FB36D801569673
:104580009C91569780916003891720F49093600363
:1045900056969C919A9DC00111248E589C4FB7014C
:1045A0000E94AA36E0915D03F0915E03D801569611
:1045B0009C918689981708F4B6CFBB24B394E091F8
:1045C000A803F091A9038081882309F0B4CF4FEFAD
:1045D0005FEF50937E0240937D0282C3DD24BC8155
:1045E000BD0DBC83CC2009F060CE8FE0B89F500198
:1045F0001124A40CB51CE090A803F090A903F701C6
:104600008081882309F495C10180F281E02D028028
:10461000F381E02DD7011296FC93EE93119713E0EE
:10462000812E912C8E0C9F1CE815F90509F4A3C36B
:1046300066807780DD24AFE0CA2E82819381F70106
:10464000928381838816990609F45EC0D70111967A
:10465000ED91FC91129766817781DC9C8001112499
:104660000A0D1B1DF80171836083675E7F4F7383A2
:10467000628369517040DB0191968C91919784839C
:1046800042E050E05683458356968C915697878337
:1046900093968C919397808794968D919D910D9090
:1046A000BC91A02D81879287A387B487FB01A7893E
:1046B000B08D8C91853A09F042C320E030E040E0B3
:1046C00050E02F5F3F4F4F4F5F4FFD01E20FF31F51
:1046D0008081853AB1F3C901D8011E969C938E93CF
:1046E0001D97D3946616770609F424C1D701119655
:1046F000ED91FC91129782819381F70192838183DE
:104700008816990609F0A2CFD40112968D919C913A
:104710001397928381839ACF80916E038F5F8093EA
:104720006E03BB2480916103882309F0D4C2BB20AF
:1047300009F0D1C280916E03815080936E03809105
:104740006E03882309F0AECE80916103813011F4AD
:104750000E94B9340F900FBEEB81E983C401B3010D
:1047600024E630E040E050E00E942C4059016A010C
:10477000A114B104C104D10409F433CE1A829A8180
:104780008981981708F02DCEE6E38E2EE2E09E2E6A
:1047900075E4672E72E0772E60C08A812A814DB75A
:1047A0005EB74A5050400FB6F8945EBF0FBE4DBF83
:1047B000ADB7BEB71196EDB7FEB732822182139620
:1047C0009C928E92129790E0FC01EE0FFF1FE80F73
:1047D000F91FCF01880F991F880F991FE80FF91F44
:1047E000E40DF51D8281938115969C938E93149709
:1047F00030E0F901EE0FFF1FE20FF31FCF01880F2A
:10480000991F880F991FE80FF91FE40DF51D818589
:10481000928517969C938E9316971996FC92EE921A
:1048200018970E9470084DB75EB7465F5F4F0FB68E
:10483000F8945EBF0FBE4DBFD1010D900020E9F787
:104840001197A219B3098A818F5F8A839A8189811E
:10485000981708F0C6CD2A0E3B1E8A8190E0FC0115
:10486000EE0FFF1FE80FF91FCF01880F991F880F68
:10487000991FE80FF91FE40DF51D61857285838589
:104880009485A60195010E942C4079018A01E114CA
:10489000F1040105110509F080CF8A812A81ADB7A5
:1048A000BEB718970FB6F894BEBF0FBEADBF119636
:1048B000EDB7FEB73282218213967C926E921297E8
:1048C00090E0FC01EE0FFF1FE80FF91FCF01880FEA
:1048D000991F880F991FE80FF91FE40DF51D8281BC
:1048E000938115969C938E93149730E0F901EE0F07
:1048F000FF1FE20FF31FCF01880F991F880F991F29
:10490000E80FF91FE40DF51D8185928517969C939C
:104910008E9316970E9470084DB75EB7485F5F4F41
:104920000FB6F8945EBF0FBE4DBF86CF80E090E01B
:1049300038CDDD24CC80CD0C8FE0C89E50011124F1
:10494000A40CB51CE090AA03F090AB03F7018081A2
:10495000882309F486C00180F281E02D0280F38172
:10496000E02DD7011296FC93EE93119773E0872EFA
:10497000912C8E0C9F1CE815F90509F406C266807F
:104980007780DD2482819381F70192838183881669
:10499000990609F45EC0D7011196ED91FC9112972A
:1049A00066817781BFE0DB9E800111240A0D1B1D0B
:1049B000F80171836083675E7F4F738362836951FF
:1049C0007040DB0191968C919197848342E050E096
:1049D0005683458356968C915697878393968C91F0
:1049E0009397808794968D919D910D90BC91A02D69
:1049F00081879287A387B487FB01A789B08D8C91AB
:104A0000853A09F099C120E030E040E050E02F5FA6
:104A10003F4F4F4F5F4FFD01E20FF31F8081853AFB
:104A2000B1F3C901D8011E969C938E931D97D39420
:104A300066167706B9F0D7011196ED91FC911297A1
:104A400082819381F701928381838816990609F008
:104A5000A2CFD40112968D919C911397928381835A
:104A60009ACFDD24ED2CEC0C8FE0E89E6001112440
:104A7000C40CD51C8091B503882309F47CC0E09157
:104A8000B603F091B7030280F381E02DF093B703F2
:104A9000E093B603B3E0E83BFB0709F480C1E09183
:104AA000B603F091B703A680B780FF246FE0762E9F
:104AB00054E0852E912C0280F381E02DF093B70312
:104AC000E093B60343E0E83BF40709F4FDC0E0914E
:104AD000B603F091B70366817781F79C80011124BA
:104AE0000C0D1D1DD80111967C936E93675E7F4F50
:104AF00013967C936E93129769517040FB0181A1CC
:104B000014968C93149716969C928E92159786897C
:104B100017968C93179783A118968C9384A195A1CF
:104B2000A6A1B7A1F80181879287A387B487FB016B
:104B3000A789B08D8C91853A09F0FBC020E030E068
:104B400040E050E02F5F3F4F4F4F5F4FFD01E20FBE
:104B5000F31F8081853AB1F3C901D8011E969C9359
:104B60008E931D97F394A616B70631F0E091B60325
:104B7000F091B703A0CFFF24EF0C8FE0E89E600117
:104B80001124C40CD51C8091BE03882309F48AC06B
:104B9000E091BF03F091C0030280F381E02DF09318
:104BA000C003E093BF03B3E0E13CFB0709F4DCC0C2
:104BB000E091BF03F091C003A680B780FF2443E0DB
:104BC000842E912C32E0632E712C0280F381E02D33
:104BD000F093C003E093BF0343E0E13CF40709F422
:104BE0006CC0E091BF03F091C003668177815FE004
:104BF000F59E800111240C0D1D1DD80111967C938A
:104C00006E93675E7F4F13967C936E9312976951F4
:104C10007040FB0181A114968C93149716969C9278
:104C20008E921597868917968C9317978489958904
:104C3000892B21F016967C926E921597DB01939644
:104C40008C919397F801808794968D919D910D900A
:104C5000BC91A02D81879287A387B487FB01A78988
:104C6000B08D8C91853A09F072C020E030E040E0D0
:104C700050E02F5F3F4F4F4F5F4FFD01E20FF31F9B
:104C80008081853AB1F3C901D8011E969C938E9319
:104C90001D97F394A616B70631F0E091BF03F0918B
:104CA000C00393CFFF24FE0CFB828091840090917F
:104CB00085003C01882499249CCB82819381909328
:104CC000C0038093BF038DCF828193819093B703FC
:104CD0008093B603FCCEB1E0B09361032BCDBB242F
:104CE000E0915D03F0915E03868990E0FC01EE0F98
:104CF000FF1FEE0FFF1FEE0FFF1FE80FF91FEE580B
:104D0000FC4F8081823008F40DCDBB24B3940ACDD2
:104D1000E091A803F091A9030580F681E02D0680BB
:104D2000F781E02D8281938190937E0280937D02B2
:104D3000F1CB80E090E011CF80E090E073CE80E096
:104D400090E0CACC90937E0280937D02C9CF80E030
:104D500090E09ACF8281938111968C93119712964D
:104D60009C939C01F901CACA828193819093C003EC
:104D70008093BF031DCF8281938111968C931197ED
:104D800012969C939C01F90153CC828193811196D8
:104D90008C93119712969C939C01F901F0CD82811E
:104DA00093819093B7038093B60379CEA3E0B0E0EC
:104DB000ECEDF6E20C944E401C01DC011C9280915B
:104DC0005F03898390915F038FE0989FC001112456
:104DD0000E9498355C01009709F4ADC089819091DB
:104DE00065039F5F9093650390915F03891708F4B3
:104DF000A6C064E0C62E1B82CA94BB81EFE0BE9FB2
:104E0000400111248A0C9B1CF9E0CF9E70011124F3
:104E100022E733E0E20EF31ED7018C91882309F4D8
:104E200082C11196ED91FC9112970280F381E02DE1
:104E30001296FC93EE93119753E0652E712C6E0C35
:104E40007F1CE615F70509F4FEC446805780DD2473
:104E500082819381F701928381836816790609F430
:104E60005FC0D7011196ED91FC9112976681778111
:104E7000BFE0DB9E80011124080D191DF80171832C
:104E80006083675E7F4F7383628369517040DB018B
:104E900091968C919197848321E030E0368325832D
:104EA00056968C915697878393968C91939780878B
:104EB00094968D919D910D90BC91A02D81879287A4
:104EC000A387B487FB01A789B08D8C91853A09F03F
:104ED000AEC220E030E040E050E02F5F3F4F4F4F48
:104EE0005F4FFD01E20FF31F8081853AB1F3C901E5
:104EF000D8011E969C938E931D97D3944616570601
:104F000009F412C1D7011196ED91FC91129782819B
:104F10009381F701928381836816790609F0A1CF06
:104F2000D30112968D919C9113979283818399CF8F
:104F3000C5010E9425352396E2E10C946A4077244E
:104F40000FB6F8940F9280916503815080936503AA
:104F500080916503882309F0A2C180915F038823B3
:104F600009F49DC1A9E0DA2ECC24C3948091AC034E
:104F7000882399F1E091B103F091B2030681178182
:104F8000C8010C960E94FB36B2E0EB2EF12CE00E2D
:104F9000F11EC7010E94FB36F801968980916003DB
:104FA000891718F49093600396899D9DC001112480
:104FB0008E589C4FB7010E94AA36E0915D03F09194
:104FC0005E03D80156969C918689981778F2C09214
:104FD00061038091AC03882369F680916E03882376
:104FE00009F457C180916E03882309F452C1F9E096
:104FF000CF2E44244A94542C6624639480916503F4
:10500000882309F02EC18091620390916303019679
:105010009093630380936203809062039090630394
:105020008114910409F52091A8033091A90380917E
:10503000AA039091AB039093A9038093A8033093A4
:10504000AB032093AA03809164038F5F8093640372
:10505000E091A803F091A9038081882309F0D1C3CE
:1050600050927E0240927D0280917D0290917E025C
:105070008816990608F4ACC3DD24E091A803F091EA
:10508000A9038081882309F449C0E091A803F09125
:10509000A9030580F681E02D06811781F801828140
:1050A00093818816990608F4C6C3E2E0EE2EF12C2F
:1050B000E00EF11EC7010E94FB36D80154968D9177
:1050C0009C915597892B21F0C8010C960E94FB36C4
:1050D000F801968980916003891718F49093600312
:1050E00096899C9DC00111248E589C4FB7010E9447
:1050F000AA36E0915D03F0915E03D80156969C912B
:105100008689981708F4B9CFDD24D394E091A803D9
:10511000F091A9038081882309F0B7CF50927E02D5
:1051200040927D0256C3DD24BB81BD0DBB83CC20E4
:1051300009F062CE8FE0B89F400111248A0C9B1CBD
:10514000E090A803F090A903F7018081882309F477
:1051500071C10180F281E02D0280F381E02DD70141
:105160001296FC93EE93119743E0642E712C6E0C13
:105170007F1CE615F70509F477C346805780DD24C8
:105180003FE0C32E82819381F70192838183681669
:10519000790609F45EC0D7011196ED91FC91129742
:1051A00066817781DC9C80011124080D191DF801AE
:1051B00071836083675E7F4F738362836951704040
:1051C000DB0191968C919197848322E030E03683C5
:1051D000258356968C915697878393968C919397B7
:1051E000808794968D919D910D90BC91A02D818783
:1051F0009287A387B487FB01A789B08D8C91853AEC
:1052000009F016C320E030E040E050E02F5F3F4F50
:105210004F4F5F4FFD01E20FF31F8081853AB1F3DD
:10522000C901D8011E969C938E931D97D394461660
:10523000570609F400C1D7011196ED91FC91129720
:1052400082819381F701928381836816790609F040
:10525000A2CFD30112968D919C9113979283818353
:105260009ACF80916E038F5F80936E03DD248091CF
:105270006103882309F0A9C2DD2009F0A6C280914C
:105280006E03815080936E0380916E03882309F032
:10529000B5CE80916103813011F40E94B9340F9032
:1052A0000FBE79821A829A818981981708F040CEC0
:1052B00064E5E62E62E0F62E8FC0019709F4B4C0D3
:1052C00000E010E08A812A814A816A81EDB7FEB749
:1052D0003E970FB6F894FEBF0FBEEDBFADB7BEB799
:1052E0001196328221821396FC92EE92129790E0F0
:1052F000FC01EE0FFF1FE80FF91FCF01880F991F68
:10530000880F991FE80FF91FEA0DFB1D8281938119
:1053100015969C938E93149717961C930E9316973D
:1053200030E0F901EE0FFF1FE20FF31FCF01880FEE
:10533000991F880F991FE80FF91FEA0DFB1D878140
:1053400018968C93189719961C92199750E0FA01A9
:10535000EE0FFF1FE40FF51FCF01880F991F880F75
:10536000991FE80FF91FEA0DFB1D858596851B9691
:105370009C938E931A9770E0FB01EE0FFF1FE60FD0
:10538000F71FCF01880F991F880F991FE80FF91F8A
:10539000EA0DFB1D84811C968C931C971D961C9214
:1053A0000E947008D1010D900020E9F71197A21911
:1053B000B3098A818F5F8A839A8189812DB73EB72D
:1053C000225F3F4F0FB6F8943EBF0FBE2DBF981718
:1053D00008F0AECD2A0E3B1E8A8190E0FC01EE0F54
:1053E000FF1FE80FF91FCF01880F991F880F991F22
:1053F000E80FF91FEA0DFB1D85819681823091052A
:1054000069F08330910508F458CF8330910549F055
:10541000049709F055CF04E410E054CF02E410E003
:1054200051CF03E510E04ECF02E510E04BCF80E016
:1054300090E05ECDDD24CB80CD0C8FE0C89E400196
:1054400011248A0C9B1CE090AA03F090AB03F70197
:105450008081882309F486C00180F281E02D0280DA
:10546000F381E02DD7011296FC93EE93119723E080
:10547000622E712C6E0C7F1CE615F70509F4FEC137
:1054800046805780DD2482819381F7019283818356
:105490006816790609F45EC0D7011196ED91FC916A
:1054A000129766817781BFE0DB9E80011124080D91
:1054B000191DF80171836083675E7F4F7383628378
:1054C00069517040DB0191968C919197848322E021
:1054D00030E03683258356968C9156978783939632
:1054E0008C919397808794968D919D910D90BC910E
:1054F000A02D81879287A387B487FB01A789B08DF0
:105500008C91853A09F091C120E030E040E050E014
:105510002F5F3F4F4F4F5F4FFD01E20FF31F808121
:10552000853AB1F3C901D8011E969C938E931D97BD
:10553000D39446165706B9F0D7011196ED91FC9118
:10554000129782819381F70192838183681679068D
:1055500009F0A2CFD30112968D919C91139792835B
:1055600081839ACFDD24ED2CEC0C8FE0E89E600166
:105570001124CA0CDB1C8091B503882309F47CC07C
:10558000E091B603F091B7030280F381E02DF09330
:10559000B703E093B603B3E0E83BFB0709F478C137
:1055A000E091B603F091B70386809780FF249FE0D7
:1055B000592E84E0682E712C0280F381E02DF09347
:1055C000B703E093B60323E0E83BF20709F4F6C023
:1055D000E091B603F091B70366817781F59C800175
:1055E00011240C0D1D1DD80111967C936E93675EDE
:1055F0007F4F13967C936E93129769517040FB0115
:1056000081A114968C93149716967C926E9215979E
:10561000868917968C93179783A118968C9384A1EB
:1056200095A1A6A1B7A1F80181879287A387B48726
:10563000FB01A789B08D8C91853A09F0F3C020E079
:1056400030E040E050E02F5F3F4F4F4F5F4FFD0194
:10565000E20FF31F8081853AB1F3C901D8011E968C
:105660009C938E931D97F3948616970631F0E091E4
:10567000B603F091B703A0CFFF24EF0C8FE0E89EB4
:1056800060011124CA0CDB1C8091BE03882309F43D
:105690008AC0E091BF03F091C0030280F381E02D46
:1056A000F093C003E093BF03B3E0E13CFB0709F4D0
:1056B000D4C0E091BF03F091C00386809780FF249F
:1056C00003E0602E712C12E0412E512C0280F381F8
:1056D000E02DF093C003E093BF0323E0E13CF20729
:1056E00009F465C0E091BF03F091C0036681778142
:1056F0003FE0F39E800111240C0D1D1DD801119671
:105700007C936E93675E7F4F13967C936E93129794
:1057100069517040FB0181A114968C9314971696E1
:105720007C926E921597868917968C931797848929
:105730009589892B21F016965C924E921597DB0184
:1057400093968C919397F801808794968D919D9173
:105750000D90BC91A02D81879287A387B487FB0110
:10576000A789B08D8C91853A09F06AC020E030E0BD
:1057700040E050E02F5F3F4F4F4F5F4FFD01E20F82
:10578000F31F8081853AB1F3C901D8011E969C931D
:105790008E931D97F3948616970631F0E091BF0320
:1057A000F091C00393CFFF247F2C7E0CC9CB828164
:1057B00093819093C0038093BF0394CF82819381A0
:1057C0009093B7038093B60303CF6092610357CDE4
:1057D000DD24E0915D03F0915E03868990E0FC0199
:1057E000EE0FFF1FEE0FFF1FEE0FFF1FE80FF91F59
:1057F000EE58FC4F8081823008F439CDDD24D394FB
:1058000036CDE091A803F091A9030580F681E02D43
:105810000680F781E02D8281938190937E028093B0
:105820007D0222CC80E090E019CF80E090E07BCE3A
:1058300080E090E0F6CC90937E0280937D02C9CF09
:1058400080E090E0A2CF8281938111968C93119792
:1058500012969C939C01F901F8CA828193819093DE
:10586000C0038093BF0325CF8281938111968C93CF
:10587000119712969C939C01F9017FCC82819381B0
:1058800011968C93119712969C939C01F901F8CD77
:10589000828193819093B7038093B60381CE0F9357
:1058A0001F93CF93DF93EC01009789F080915D0304
:1058B00090915E03C817D90751F00FB6F8940F9274
:1058C0008A859B858E5B934039F00F900FBEDF91E8
:1058D000CF911F910F9108958C899D8923E08C3A77
:1058E000920799F3892B89F78E010E5F1F4FC8012C
:1058F0000E94FB369E8980916003891710F4909373
:10590000600389E0989FC00111248E589C4FB80114
:105910000E94AA36E0915D03F0915E039E8986891C
:10592000981798F20E94B934D0CFEF92FF920F935C
:105930001F93CF93DF930FB6F8940F92009709F45B
:10594000DDC0EC018E010E5F1F4FC8010E94FB36C7
:105950008C899D89892B21F0CE010C960E94FB3603
:105960008EEB93E0B8010E94AA360F900FBE809193
:105970005D0390915E03C817D90761F180916F03B1
:10598000882391F00FB6F8940F92E091A803F0915C
:10599000A9038081882369F48FEF9FEF90937E02A3
:1059A00080937D020F900FBECDB7DEB7E6E00C947A
:1059B0007640E091A803F091A9030580F681E02DDF
:1059C0000680F781E02D8281938190937E028093FF
:1059D0007D02E8CF80916F03882309F098C09091F1
:1059E0005F038091BE03891709F494C08091650319
:1059F000882309F088C010926103809184009091FF
:105A000085007C0100E010E0E0926603F0926703FD
:105A1000009368031093690380916A0390916B036C
:105A2000A0916C03B0916D038E159F05A007B1077F
:105A3000B0F4E0915D03F0915E03A8019701281B8B
:105A4000390B4A0B5B0B84A195A1A6A1B7A1820FCC
:105A5000931FA41FB51F84A395A3A6A3B7A3E09289
:105A60006A03F0926B0300936C0310936D03E09153
:105A70005D03F0915E03A0915D03B0915E03208110
:105A8000318157968D919C9158978217930730F0EA
:105A900046C08091600381508093600380916003D1
:105AA00090E0FC01EE0FFF1FEE0FFF1FEE0FFF1F38
:105AB000E80FF91FEE58FC4F8081882351F3909135
:105AC000600389E0989FD0011124AE58BC4F119615
:105AD000ED91FC9112970280F381E02D1296FC93D8
